:100000000C9457010C9488010C9488010C9488017D
:100010000C9488010C9488010C9488010C9488013C
:100020000C9488010C9488010C9488010C9488012C
:100030000C9488010C9488010C9488010C9488011C
:100040000C9488010C9488010C9488010C9488010C
:100050000C9488010C9488010C9488010C94EF0690
:100060000C9488010C94C3070C9499070C94880194
:100070000C9488010C9488010C9488010C948801DC
:100080000C9488010C9488010C9488010C948801CC
:100090000C9488010C9488010C9488010C948801BC
:1000A0000C9488010C9488010C9488010C948801AC
:1000B0000C9488010C9488010C9488010C9488019C
:1000C0000C9488010C9488010C9488010C9488018C
:1000D0000C9488010C9488010C9463070C943907E4
:1000E0000C9488010C9455040C94B8030C94AE0243
:1000F0000C9418030C9425020C9400020C94D10269
:100100000C94A4030C94BD020C9437020C942C03A1
:100110000C9468030C943E080C94C6030C94EB02F8
:100120000C940D020C941F020C940E030C94B30259
:100130000C94E6010C9429020C94F8010C943302FF
:100140000C9417020C942D020C94FC010C940402E4
:100150000C94D9020C9411020C9408040C94F5022E
:100160000C9407020C9422030C94C7020C94FF0217
:100170000C94E1010C94A6020C9436030C94E10259
:100180000C9495030C9440030C941B020000210076
:10019000240027002A002D00300033000101000058
:1001A000040107010A0100002200250028002B009D
:1001B0002E003100340002010000050108010B018E
:1001C00000000A0B02090C0D0E08070304010000D1
:1001D000000000000000000000000000000000001F
:1001E00000000000000000000000000012111000DC
:1001F00000000000000000000000000000000000FF
:10020000000000000000000020002300260029005C
:100210002C002F003200000100000301060109013B
:1002200005050505070508080808020202020A0A72
:100230000808040404040101010101010101030390
:10024000030303030303040707070C0C0C0C0C0C3B
:100250000C0C0202020206060606060606060B0B38
:100260000B0B0B0B0B0B0102102020080810204079
:10027000102040800201020108040201010204086A
:1002800010204080804020100804020180040201F8
:100290008040201008040201080402010102040841
:1002A0001020408001020408102040803E081124E4
:1002B0001FBECFEFD1E2DEBFCDBF00E00CBF13E029
:1002C000A0E0B2E0ECE3FEE100E00BBF02C007906B
:1002D0000D92A033B107D9F724E0A0E3B3E001C049
:1002E0001D92AC3FB207E1F711E0C7E5D1E000E0B5
:1002F00006C021970109802FFE010E94FB0CC63524
:10030000D10780E00807A9F70E94A7080C941C0FEA
:100310000C940000FC01A089B18982E08C93A48533
:10032000B5851C92A685B78580E18C93108EA48933
:10033000B58986E08C93A289B3898C9180618C9376
:10034000A289B3898C9188608C93A289B3898C919E
:1003500080688C930288F389E02D80818F7D808373
:100360000895282F30E0F901E054FE4F9491F901EF
:10037000EA59FD4F4491205E3D4FF901249122231B
:1003800009F435C0992311F191509231F8F4E92F15
:10039000F0E08827E153FE4F8F4F0C94FB0C0002D6
:1003A0000402E101F801FC01E60107020D0211025D
:1003B00017021B021F0225022902E6012D02330249
:1003C0003702809180008F7780938000E22FF0E0E9
:1003D000EE0FFF1FEA55FE4FA591B4918FB7F89429
:1003E000EC91611148C040954E234C938FBF089506
:1003F000809180008F7DE8CF80918000877FE4CF5F
:1004000084B58F7784BDE2CF84B58F7DFBCF80919B
:10041000B0008F778093B000D9CF8091B0008F7DEE
:10042000F9CF809190008F7780939000CFCF80910B
:1004300090008F7DF9CF80919000877FF5CF8091DC
:10044000A0008F778093A000C1CF8091A0008F7D06
:10045000F9CF8091A000877FF5CF809120018F7721
:1004600080932001B3CF809120018F7DF9CF8091BF
:100470002001877FF5CF4E2BB8CFCF93DF9390E04D
:10048000FC01EA59FD4F2491805E9D4FFC0184914F
:100490008823D1F090E0880F991FFC01E457FE4FAC
:1004A000A591B491FC01EA55FE4FC591D49161111B
:1004B0000EC09FB7F8948C91E22FE0958E238C9319
:1004C0002881E223E8839FBFDF91CF9108958FB702
:1004D000F894EC91E22BEC938FBFF6CF1F93CF9360
:1004E000DF93182FEB0161E00E943D02209739F461
:1004F00060E0812FDF91CF911F910C94B101CF3F2C
:10050000D10511F461E0F5CFE12FF0E0E054FE4FAA
:10051000E491E150E23108F0B3C0F0E08827EC56F6
:10052000FD4F8F4F0C94FB0CA602AE02B302BD022E
:10053000C7024003D102D902E102EB02F502FF0239
:100540000E031803400322032C03360384B580688E
:1005500084BDC7BDDF91CF911F91089584B580629E
:1005600084BDC8BDF7CF80918000806880938000F3
:10057000D0938900C0938800EDCF80918000806285
:1005800080938000D0938B00C0938A00E3CF80914A
:100590008000886080938000D0938D00C0938C0091
:1005A000D9CF8091B00080688093B000C093B30031
:1005B000D1CF8091B00080628093B000C093B4002E
:1005C000C9CF80919000806880939000D09399006B
:1005D000C0939800BFCF809190008062809390007C
:1005E000D0939B00C0939A00B5CF80919000886013
:1005F00080939000D0939D00C0939C00ABCF8091DE
:10060000A00080688093A0008091A0008F7B8093E1
:10061000A000D093A900C093A8009CCF8091A00017
:1006200080628093A000D093AB00C093AA0092CFC9
:100630008091A00088608093A000D093AD00C0930B
:10064000AC0088CF80912001806880932001D093F6
:100650002901C09328017ECF809120018062809380
:100660002001D0932B01C0932A0174CF80912001E7
:10067000886080932001D0932D01C0932C016ACF14
:10068000C038D1050CF03ECF33CF90917B00977FDF
:1006900090937B008653806480937C0080917A00E5
:1006A000806480937A0080917A0086FDFCCF8091EF
:1006B00078009091790008952FB7F89460918203A3
:1006C0007091830380918403909185032FBF0895D7
:1006D000AF92BF92CF92DF92EF92FF920F931F9350
:1006E000CF93DF936C017B018B01040F151FEB018E
:1006F0005E01AE18BF08C017D10759F06991D60145
:10070000ED91FC910190F081E02DC6011995892BA6
:1007100079F7C501DF91CF911F910F91FF90EF9075
:10072000DF90CF90BF90AF900895FC01538D448D22
:10073000252F30E0842F90E0821B930B541710F08C
:10074000CF96089501970895FC01918D828D981799
:1007500061F0A28DAE0FBF2FB11D5D968C91928D71
:100760009F5F9F73928F90E008958FEF9FEF0895A2
:10077000FC01918D828D981731F0828DE80FF11D6B
:10078000858D90E008958FEF9FEF0895FC01918D86
:10079000228D892F90E0805C9F4F821B91098F737F
:1007A0009927089586EB93E00E94C60321E0892BE8
:1007B00009F420E0822F089583E594E00E94C603A7
:1007C00021E0892B09F420E0822F0895FC01A48DFB
:1007D000A80FB92FB11DA35ABF4F2C91848D90E063
:1007E00001968F739927848FA689B7892C93A08946
:1007F000B1898C91837080648C93938D848D9813D0
:1008000006C00288F389E02D80818F7D8083089562
:10081000EF92FF920F931F93CF93DF93EC0181E050
:10082000888F9B8D8C8D98131AC0E889F9898081F7
:1008300085FF15C09FB7F894EE89FF896083E8892A
:10084000F98980818370806480839FBF81E090E01C
:10085000DF91CF911F910F91FF90EF900895F62EA9
:100860000B8D10E00F5F1F4F0F731127E02E8C8D43
:100870008E110CC00FB607FCFACFE889F989808188
:1008800085FFF5CFCE010E94E603F1CFEB8DEC0F93
:10089000FD2FF11DE35AFF4FF0829FB7F8940B8FA5
:1008A000EA89FB8980818062CFCFCF93DF93EC010F
:1008B000888D8823B9F0AA89BB89E889F9898C9148
:1008C00085FD03C0808186FD0DC00FB607FCF7CF04
:1008D0008C9185FFF2CF808185FFEDCFCE010E9404
:1008E000E603E9CFDF91CF91089580E090E0892B76
:1008F00029F00E94DC0381110E94000080E090E05A
:10090000892B49F080E090E0892B29F00E940000BB
:1009100081110E94000080E090E0892B49F080E086
:1009200090E0892B29F00E94000081110E940000B4
:1009300080E090E0892B29F00E94D20381110C9471
:1009400000000895FF920F931F93CF93DF93EC0164
:100950008B01F12C77FF05C0119501951109FF243A
:10096000F394013F110544F5413081F0B8018A81CB
:100970000E946E02012B39F560E088810E94B1016E
:1009800060E028C061E0FACF00EF10E0B8018D818F
:100990000E946E02012B31F460E08B810E94B10154
:1009A00060E008C08B8161E0FF20C1F360E00E943D
:1009B000B10161E08C810FC0413031F360EF70E034
:1009C0008A810E946E028881FF20E1F260E00E942D
:1009D000B10161E08981DF91CF911F910F91FF906B
:1009E0000C94B1014F925F926F927F928F929F927F
:1009F000AF92BF92CF92DF92EF92FF92CF93DF93AD
:100A000000D01F92CDB7DEB72B013C0149015A013E
:100A100080914003811105C00E945C0381E08093B6
:100A200040038091380381110DC00E945C036093E4
:100A3000340370933503809336039093370381E03A
:100A4000809338030E945C03C0903403D090350338
:100A5000E0903603F09037036C197D098E099F09E9
:100A60000E94180E20E030E04AE754E40E94700D26
:100A700069837A838B839C830E945C036093340335
:100A8000709335038093360390933703609130035E
:100A90007091310380913203909133030E941A0EBA
:100AA0006B017C01A3019201C501B4010E94A60E55
:100AB00029813A814B815C810E94A60E9B01AC0189
:100AC000C701B6010E94040D0E94E20D613F71054D
:100AD0008105910524F060EF70E080E090E06031E6
:100AE0002FEF72078207920724F460E17FEF8FEF08
:100AF0009FEF6093300370933103809332039093A0
:100B000033030E941A0E0F900F900F900F90DF91F9
:100B1000CF91FF90EF90DF90CF90BF90AF909F90DC
:100B20008F907F906F905F904F900895FB01908120
:100B3000892790E1899F90011124822790E0382F26
:100B40002227AC0163E0440F551F6A95E1F7242783
:100B50003527418150E02427352774E09595879506
:100B60007A95E1F782279327918380830895CF9226
:100B7000DF92EF92FF920F931F93CF93DF93CDB746
:100B8000DEB769970FB6F894DEBF0FBECDBF8C01FC
:100B900080E1FB01DE01179601900D928A95E1F745
:100BA00029833A834B835C8381E08D838E831F8A04
:100BB00097E1FE013196D801189601900D929A9511
:100BC000E1F797E1D80117969C9317972EEF1296AD
:100BD0002C93129713969C93139792E015969C93DF
:100BE000159716968C93169780918D0314968C9377
:100BF0008F5F80938D038FEF9FEF998F888F7801A0
:100C0000B3E0EB0EF11C6801EFE1CE0ED11CBE018A
:100C1000685E7F4FCE14DF0431F0D7018D917D01E6
:100C20000E949605F4CF88EA0E949605388D298D9A
:100C3000C8010896F801A381A80FB92FB11D3C93F4
:100C4000E381E80FF92FF11D21838FE190E0699690
:100C50000FB6F894DEBF0FBECDBFDF91CF911F91CD
:100C60000F91FF90EF90DF90CF900895FC010190DD
:100C70000020E9F73197AF01481B590BBC0183E510
:100C800094E00C9468038F929F92AF92BF920F935F
:100C90001F93CF93DF93CDB7DEB7A1970FB6F8942C
:100CA000DEBF0FBECDBF19A2423008F44AE08E016C
:100CB0000F5D1F4F842E912CB12CA12CA501940106
:100CC0000E94CA0CE62FB901CA01EA30F4F4E05DD3
:100CD000D801EE938D01232B242B252B79F790E05F
:100CE00080E0109719F0CD010E943606A1960FB64C
:100CF000F894DEBF0FBECDBFDF91CF911F910F9152
:100D0000BF90AF909F908F900895E95CE1CFCF9313
:100D1000DF930E943606EC0188E192E00E943606DD
:100D20008C0F9D1FDF91CF9108950C943606CF92C2
:100D3000DF92EF92FF92CF93DF936C01990FEE0851
:100D4000FF08F7FE1FC06DE283E594E00E940804EF
:100D5000EC0166277727CB016C197D098E099F0965
:100D60004AE00E944306C80FD91F88E192E00E9422
:100D700036068C0F9D1FDF91CF91FF90EF90DF9093
:100D8000CF9008954AE0C701B6010E944306EC01E6
:100D9000ECCF0F931F9390E0FC01EA59FD4F649153
:100DA000FC01E05EFD4FE491F0E0EE0FFF1FEA5F13
:100DB000FD4F8591949100E412E42FE030E0462F3E
:100DC0000E94F907611571058105910529F06F5F92
:100DD0007F4F8F4F9F4F9F701F910F9108951F92CC
:100DE0000F920FB60F9211242F933F938F939F93DF
:100DF000AF93BF938091820390918303A09184036A
:100E0000B09185033091810323E0230F2D3758F5EE
:100E10000196A11DB11D20938103809382039093BD
:100E20008303A0938403B093850380917D03909105
:100E30007E03A0917F03B09180030196A11DB11D97
:100E400080937D0390937E03A0937F03B0938003F0
:100E5000BF91AF919F918F913F912F910F900FBEB6
:100E60000F901F90189526E8230F0296A11DB11D23
:100E7000D2CF1F920F920FB60F9211240BB60F9282
:100E80002F933F934F935F936F937F938F939F9392
:100E9000AF93BF93EF93FF9386EB93E00E94E6033B
:100EA000FF91EF91BF91AF919F918F917F916F9142
:100EB0005F914F913F912F910F900BBE0F900FBEFE
:100EC0000F901F9018951F920F920FB60F9211243A
:100ED0000BB60F922F938F939F93EF93FF93E09115
:100EE000C603F091C7038081E091CC03F091CD035C
:100EF00082FD1DC090818091CF038F5F8F73209101
:100F0000D003821741F0E091CF03F0E0EA54FC4FA8
:100F1000958F8093CF03FF91EF919F918F912F91A8
:100F20000F900BBE0F900FBE0F901F9018958081F1
:100F3000F2CF1F920F920FB60F9211240BB60F92A1
:100F40002F933F934F935F936F937F938F939F93D1
:100F5000AF93BF93EF93FF9383E594E00E94E60382
:100F6000FF91EF91BF91AF919F918F917F916F9181
:100F70005F914F913F912F910F900BBE0F900FBE3D
:100F80000F901F9018951F920F920FB60F92112479
:100F90000BB60F922F938F939F93EF93FF93E09154
:100FA0006304F09164048081E0916904F0916A0423
:100FB00082FD1DC0908180916C048F5F8F732091A2
:100FC0006D04821741F0E0916C04F0E0ED5AFB4FA4
:100FD000958F80936C04FF91EF919F918F912F914A
:100FE0000F900BBE0F900FBE0F901F901895808131
:100FF000F2CFCF92DF92EF92FF920F931F93E82FE1
:10100000F92F05C0015011092109310961F19081C1
:1010100096239417B9F305C001501109210931092C
:1010200011F1908196239413F7CFC12CD12CE12C90
:10103000F12C0AC08FEFC81AD80AE80AF80A0C1572
:101040001D052E053F0579F080818623841791F3D5
:101050006C2D7D2D8E2D9F2D1F910F91FF90EF9068
:10106000DF90CF90089560E070E080E090E01F9105
:101070000F91FF90EF90DF90CF900895E6EBF3E0B3
:101080001382128248EE53E060E070E0448355839F
:10109000668377838AE092E09183808325E331E061
:1010A0003587248724E331E03787268720E331E042
:1010B000318B208B21E331E0338B228B22E331E033
:1010C000358B248B26E331E0378B268B118E128EE5
:1010D000138E148EE3E5F4E0138212824483558369
:1010E000668377839183808385EC90E095878487FE
:1010F00084EC90E09787868780EC90E0918B808BE2
:1011000081EC90E0938B828B82EC90E0958B848BCA
:1011100086EC90E0978B868B118E128E138E148E38
:10112000E6EFF4E082E0808383E0818384E08283E1
:1011300085E0838386E0848387E08583E0EFF4E0C5
:1011400088E0808389E081838AE082830895CF9359
:10115000DF93CDB7DEB7C05ED1090FB6F894DEBF1E
:101160000FBECDBF789484B5826084BD84B58160A4
:1011700084BD85B5826085BD85B5816085BD809162
:101180006E00816080936E001092810080918100DA
:1011900082608093810080918100816080938100D2
:1011A000809180008160809380008091B100846094
:1011B0008093B1008091B00081608093B0008091F5
:1011C0009100826080939100809191008160809372
:1011D0009100809190008160809390008091A100A7
:1011E00082608093A1008091A10081608093A10022
:1011F0008091A00081608093A00080912101826095
:10120000809321018091210181608093210180914F
:10121000200181608093200180917A008460809316
:101220007A0080917A00826080937A0080917A00BF
:10123000816080937A0080917A00806880937A0040
:101240001092C10083E594E00E948A0186EB93E04E
:101250000E948A018BE192E00E94950661E08091F4
:10126000F6040E943D0261E08091F7040E943D0275
:1012700061E08091F8040E943D0261E08091F904F0
:101280000E943D0261E08091FA040E943D0261E00B
:101290008091FB040E943D0261E08091F0040E9475
:1012A0003D0261E08091F1040E943D0261E0809185
:1012B000F2040E943D0260E086E30E943D0260E08D
:1012C00087E30E943D0260E08DE00E943D0260E005
:1012D0008CE00E943D0260E08BE00E943D028DE0C8
:1012E0000E94C90670930102609300028CE00E9484
:1012F000C90670930302609302028BE00E94C90644
:101300007093050260930402209100023091010263
:10131000032E000C440B550B215E3340410951094B
:10132000AEE5B0E00E94B70C21EE33E040E050E0C3
:101330000E94980C49015A0185E2881A9108A10877
:10134000B108909201028092000286E30E94450358
:101350009C01990F440B550B2D5631404109510901
:10136000AEE5B0E00E94B70C2FEA31E040E050E07B
:101370000E94980C2552310941095109190192E046
:10138000291A31086401C218D308B6010D2C000CCB
:10139000880B990B0E941A0E2B013C012DEC3CECA2
:1013A0004CE45FE30E94F204C352DF4F6883798309
:1013B0008A839B83CD5DD040C601019610E000E09A
:1013C000039718F12AE939E949E95EE3C301B2015B
:1013D0000E94A60EC352DF4F288139814A815B816A
:1013E000CD5DD0400E94040D0E94E20D613F710569
:1013F00014F060EF70E06031AFEF7A0714F460E151
:101400007FEF00271127061B170B41E0B80186EF7D
:1014100094E00E94A2040E945C0340905403509008
:101420005503609056037090570364197509860937
:101430009709683E73408105910578F10E945C032D
:10144000609354037093550380935603909357030E
:10145000B801012E000C880B990B0E941A0E9B01FB
:10146000AC016DE272E0CE0101960E94B705EC80FE
:10147000F12C28E0E20EF11CA701BE016D5F7F4F49
:10148000CE018F589F4F0E94130FA701BE016F58C6
:101490007F4F86EB93E00E94680380917003811177
:1014A0004AC080914C0381110DC00E945C0360937F
:1014B00048037093490380934A0390934B0381E060
:1014C00080934C030E945C03409048035090490372
:1014D00060904A0370904B03641975098609970957
:1014E000643F71408105910530F10E945C03609377
:1014F00048037093490380934A0390934B0388E316
:1015000092E00E949506C4010E9497068AE492E048
:101510000E949506C1010E9497068BE592E00E9409
:101520009506C6010E9497068AE692E00E949506FB
:10153000C8010E9497062091020230910302032EF7
:10154000000C440B550B215E334041095109AFEBB0
:10155000BFEF0E94C50C21EE33E040E050E00E9456
:10156000980C69017A018BE4C80ED11CE11CF11CB6
:10157000D0920302C092020287E30E9445039C01BD
:10158000990F440B550B2C5C310941095109AFEB04
:10159000BFEF0E94C50C26E632E040E050E00E941A
:1015A000980CDA01C901855B9F4FAF4FBF4FC35203
:1015B000DF4F88839983AA83BB83CD5DD04016011A
:1015C000281A390AB101032C000C880B990B0E94D0
:1015D0001A0E4B015C0120E030E040E05FE30E9426
:1015E000F2042B013C01C1010196039708F47CC170
:1015F00020E030E040E05FE3C501B4010E94A60EA8
:10160000A30192010E94040D0E94E20D613F710549
:1016100014F060EF70E060319FEF790714F460E13F
:101620007FEFAA24BB24A61AB70A40E0B50180EFD9
:1016300094E00E94A2040E945C0300915403109164
:1016400055032091560330915703601B710B820B99
:10165000930B683E73408105910570F10E945C0315
:1016600060935403709355038093560390935703EC
:10167000B5010B2C000C880B990B0E941A0E9B01D4
:10168000AC0167E772E0CE0101960E94B7050C81BC
:1016900010E0085F1F4FA801BE016D5F7F4FCE01B4
:1016A0008F589F4F0E94130FA801BE016F587F4FA4
:1016B00086EB93E00E94680310917003113009F0EB
:1016C0004EC080915C0381110CC00E945C0360934A
:1016D00058037093590380935A0390935B031093BC
:1016E0005C030E945C030091580310915903209100
:1016F0005A0330915B03601B710B820B930B643FA9
:1017000071408105910558F10E945C036093580374
:101710007093590380935A0390935B0380E892E09F
:101720000E949506C6010E94970680E992E00E94F9
:101730009506C352DF4F88819981CD5DD0400E94CC
:1017400097068FE992E00E949506C1010E949706D4
:101750008CEA92E00E949506C5010E9497068DE0F2
:101760000E94C90670930102609300028CE00E94FF
:10177000C90670930302609302028BE00E94C906BF
:101780009B017093050260930402683E43E0740776
:101790000CF4B8C08B01213D87E0380714F000ED50
:1017A00017E02B3F95E039070CF4A1C040E0B801E9
:1017B00086EF94E00E94A204809170038230A9F524
:1017C0008091680381110DC00E945C0360936403E3
:1017D00070936503809366039093670381E0809321
:1017E00068030E945C03C0906403D0906503E0909E
:1017F0006603F09067036C197D098E099F09683EA6
:1018000073408105910588F00E945C036093640336
:101810007093650380936603909367038DEB92E06A
:101820000E949506C8010E94970683E594E00E94F5
:10183000C60318161906F4F483E594E00E94A40385
:101840008037C1F4809170038F5F843008F05DC0F1
:10185000809370038FEC92E00E9495066091700374
:1018600070E090E080E04AE00E94430688E192E068
:101870000E9436068091750381110DC00E945C03A1
:101880006093710370937203809373039093740356
:1018900081E0809375030E945C03009171031091B5
:1018A00072032091730330917403601B710B820BE0
:1018B000930B683E73408105910570F10E945C03B3
:1018C0006093710370937203809373039093740316
:1018D00080917003813019F1D8F0823019F1833092
:1018E00021F18FE193E016C0B12CA12C9ECE40E0F7
:1018F00070E060E02E3B35400CF05ACF1195019519
:10190000110954CF08EE13E0F9CF10927003A2CF63
:1019100081EE92E00E9487060E947504E0CC81EF80
:1019200092E0F8CF8FEF92E0F5CF81E193E0F2CF34
:10193000052E97FB1EF400940E94AF0C57FD07D0B4
:101940000E94CA0C07FC03D04EF40C94AF0C5095C7
:101950004095309521953F4F4F4F5F4F089590959B
:101960008095709561957F4F8F4F9F4F08950E948E
:10197000EC0CA59F900DB49F900DA49F800D911D20
:1019800011240895B7FF0C94B70C0E94B70C821B6A
:10199000930B0895A1E21A2EAA1BBB1BFD010DC0DB
:1019A000AA1FBB1FEE1FFF1FA217B307E407F5070F
:1019B00020F0A21BB30BE40BF50B661F771F881FEB
:1019C000991F1A9469F760957095809590959B0181
:1019D000AC01BD01CF010895A29FB001B39FC0012A
:1019E000A39F700D811D1124911DB29F700D811D4B
:1019F0001124911D0895EE0FFF1F881F8BBF0790C4
:101A0000F691E02D19945058BB27AA270E941B0D70
:101A10000C946C0E0E945E0E38F00E94650E20F051
:101A200039F49F3F19F426F40C945B0E0EF4E09504
:101A3000E7FB0C94550EE92F0E947D0E58F3BA1760
:101A4000620773078407950720F079F4A6F50C94D4
:101A50009F0E0EF4E0950B2EBA2FA02D0B01B901AD
:101A600090010C01CA01A0011124FF27591B99F014
:101A7000593F50F4503E68F11A16F040A22F232F20
:101A8000342F4427585FF3CF469537952795A79570
:101A9000F0405395C9F77EF41F16BA0B620B730B17
:101AA000840BBAF09150A1F0FF0FBB1F661F771F88
:101AB000881FC2F70EC0BA0F621F731F841F48F43D
:101AC000879577956795B795F7959E3F08F0B0CFC6
:101AD0009395880F08F09927EE0F979587950895AD
:101AE0000E94840D0C946C0E0E94650E58F00E94AA
:101AF0005E0E40F029F45F3F29F00C94550E511111
:101B00000C94A00E0C945B0E0E947D0E68F399233A
:101B1000B1F3552391F3951B550BBB27AA276217E9
:101B20007307840738F09F5F5F4F220F331F441FF6
:101B3000AA1FA9F335D00E2E3AF0E0E832D091502A
:101B40005040E695001CCAF72BD0FE2F29D0660F17
:101B5000771F881FBB1F261737074807AB07B0E85A
:101B600009F0BB0B802DBF01FF2793585F4F3AF060
:101B70009E3F510578F00C94550E0C94A00E5F3FDB
:101B8000E4F3983ED4F3869577956795B795F795E6
:101B90009F5FC9F7880F911D9695879597F90895CE
:101BA000E1E0660F771F881FBB1F6217730784076A
:101BB000BA0720F0621B730B840BBA0BEE1F88F779
:101BC000E09508950E94E90D6894B1110C94A00E5F
:101BD00008950E94850E88F09F5798F0B92F992795
:101BE000B751B0F0E1F0660F771F881F991F1AF008
:101BF000BA95C9F714C0B13091F00E949F0EB1E0C0
:101C000008950C949F0E672F782F8827B85F39F0BE
:101C1000B93FCCF3869577956795B395D9F73EF4A0
:101C200090958095709561957F4F8F4F9F4F089548
:101C3000E89409C097FB3EF4909580957095619566
:101C40007F4F8F4F9F4F9923A9F0F92F96E9BB271C
:101C50009395F695879577956795B795F111F8CF98
:101C6000FAF4BB0F11F460FF1BC06F5F7F4F8F4F03
:101C70009F4F16C0882311F096E911C0772321F0F9
:101C80009EE8872F762F05C0662371F096E8862F91
:101C900070E060E02AF09A95660F771F881FDAF7E8
:101CA000880F9695879597F9089597F99F6780E82B
:101CB00070E060E008959FEF80EC089500240A949E
:101CC0001616170618060906089500240A94121617
:101CD0001306140605060895092E0394000C11F44A
:101CE000882352F0BB0F40F4BF2B11F460FF04C0F7
:101CF0006F5F7F4F8F4F9F4F089557FD9058440F50
:101D0000551F59F05F3F71F04795880F97FB991F5A
:101D100061F09F3F79F08795089512161306140617
:101D2000551FF2CF4695F1DF08C0161617061806A4
:101D3000991FF1CF86957105610508940895E8947F
:101D4000BB2766277727CB0197F908950E94B90E24
:101D50000C946C0E0E945E0E38F00E94650E20F00E
:101D6000952311F00C94550E0C945B0E11240C94D9
:101D7000A00E0E947D0E70F3959FC1F3950F50E069
:101D8000551F629FF001729FBB27F00DB11D639F2D
:101D9000AA27F00DB11DAA1F649F6627B00DA11DD3
:101DA000661F829F2227B00DA11D621F739FB00D79
:101DB000A11D621F839FA00D611D221F749F3327E9
:101DC000A00D611D231F849F600D211D822F762F82
:101DD0006A2F11249F5750409AF0F1F088234AF05F
:101DE000EE0FFF1FBB1F661F771F881F91505040CB
:101DF000A9F79E3F510580F00C94550E0C94A00E4F
:101E00005F3FE4F3983ED4F3869577956795B79551
:101E1000F795E7959F5FC1F7FE2B880F911D96956B
:101E2000879597F90895FB01DC0102C001900D929E
:0C1E300041505040D8F70895F894FFCFBF
:101E3C00DC050000000000000000080468039503A6
:101E4C005504C603A403B8030D0A00426F61742045
:101E5C0052756464657220546573740A005255445B
:101E6C004445525F50574D000A52756464657220A8
:101E7C00646573697265643A2000527564646572B6
:101E8C002070726573656E743A20005275646465D7
:101E9C0072206572726F723A2000527564646572BA
:101EAC002050574D3A20005341494C5F50574D003C
:101EBC000A5361696C20646573697265643A200029
:101ECC005361696C2070726573656E743A200053AF
:101EDC0061696C206572726F723A20005361696C93
:101EEC002050574D2046696E616C3A200054687240
:101EFC006F74746C65207369676E616C3A20005066
:101F0C0072696E742073656C656374696F6E3A20C8
:101F1C000052756464657253656C656374696F6EA9
:101F2C00005361696C53656C656374696F6E005422
:101F3C0068726F74746C6553656C656374696F6EED
:101F4C00004E6F6E6553656C656374696F6E004906
:101F5C006E76616C696453656C656374696F6E0051
:00000001FF
