:100000000C9457010C9488010C9488010C9488017D
:100010000C9488010C9488010C9488010C9488013C
:100020000C9488010C9488010C9488010C9488012C
:100030000C9488010C9488010C9488010C9488011C
:100040000C9488010C9488010C9488010C9488010C
:100050000C9488010C9488010C9488010C94780607
:100060000C9488010C944C070C9422070C94880182
:100070000C9488010C9488010C9488010C948801DC
:100080000C9488010C9488010C9488010C948801CC
:100090000C9488010C9488010C9488010C948801BC
:1000A0000C9488010C9488010C9488010C948801AC
:1000B0000C9488010C9488010C9488010C9488019C
:1000C0000C9488010C9488010C9488010C9488018C
:1000D0000C9488010C9488010C94EC060C94C206D4
:1000E0000C9488010C942C030C941F020C948D0327
:1000F0000C94F8010C94FC010C94EB020C94370264
:100100000C94F1030C9425020C94E1020C94A602C9
:100110000C94AF030C942D020C947E030C94D90222
:100120000C9411020C94A1030C9451030C94FF0243
:100130000C94C7070C9429020C94AE020C9436035D
:100140000C94F5020C9407020C9418030C94000212
:100150000C940E030C94D1020C94BD020C94E60195
:100160000C94B3020C94E1010C9433020C941B0226
:100170000C9417020C9422030C94C7020C944003B5
:100180000C9404020C943E040C940D020000200018
:100190002300260029002C002F003200000100005F
:1001A00003010601090100002100240027002A00A4
:1001B0002D003000330001010000040107010A0195
:1001C00000002200250028002B002E003100340002
:1001D00002010000050108010B01050505050705E1
:1001E00008080808020202020A0A080804040404B3
:1001F00001010101010101010303030303030303DF
:10020000040707070C0C0C0C0C0C0C0C020202026D
:1002100006060606060606060B0B0B0B0B0B0B0B56
:100220000102102020080810204010204080020108
:1002300002010804020101020408102040808040ED
:1002400020100804020180040201804020100804EC
:10025000020108040201010204081020408001028A
:1002600004081020408000000A0B02090C0D0E0843
:10027000070304010000000000000000000000006F
:10028000000000000000000000000000000000006E
:10029000000012111000000000000000000000002B
:1002A000000000000000000000000000C70711244B
:1002B0001FBECFEFD1E2DEBFCDBF00E00CBF12E02A
:1002C000A0E0B2E0E6EDFCE100E00BBF02C0079069
:1002D0000D92A838B107D9F724E0A8E8B2E001C030
:1002E0001D92AB33B207E1F711E0C7E5D1E000E0C2
:1002F00006C021970109802FFE010E94010CC6351E
:10030000D10780E00807A9F70E9428080C94690E1D
:100310000C940000FC01A089B18982E08C93A48533
:10032000B5851C92A685B78580E18C93108EA48933
:10033000B58986E08C93A289B3898C9180618C9376
:10034000A289B3898C9188608C93A289B3898C919E
:1003500080688C930288F389E02D80818F7D808373
:100360000895282F30E0F901EA59FD4F9491F901E1
:10037000E05EFD4F449126523E4FF9012491222325
:1003800009F435C0992311F191509231F8F4E92F15
:10039000F0E08827E153FE4F8F4F0C94010C0002D0
:1003A0000402E101F801FC01E60107020D0211025D
:1003B00017021B021F0225022902E6012D02330249
:1003C0003702809180008F7780938000E22FF0E0E9
:1003D000EE0FFF1FE054FE4FA591B4918FB7F89434
:1003E000EC91611148C040954E234C938FBF089506
:1003F000809180008F7DE8CF80918000877FE4CF5F
:1004000084B58F7784BDE2CF84B58F7DFBCF80919B
:10041000B0008F778093B000D9CF8091B0008F7DEE
:10042000F9CF809190008F7780939000CFCF80910B
:1004300090008F7DF9CF80919000877FF5CF8091DC
:10044000A0008F778093A000C1CF8091A0008F7D06
:10045000F9CF8091A000877FF5CF809120018F7721
:1004600080932001B3CF809120018F7DF9CF8091BF
:100470002001877FF5CF4E2BB8CFCF93DF9390E04D
:10048000FC01E05EFD4F249186529E4FFC01849159
:100490008823D1F090E0880F991FFC01EA55FE4FA8
:1004A000A591B491FC01E054FE4FC591D491611126
:1004B0000EC09FB7F8948C91E22FE0958E238C9319
:1004C0002881E223E8839FBFDF91CF9108958FB702
:1004D000F894EC91E22BEC938FBFF6CF1F93CF9360
:1004E000DF93182FEB0161E00E943D02209739F461
:1004F00060E0812FDF91CF911F910C94B101CF3F2C
:10050000D10511F461E0F5CFE12FF0E0EA59FD4F9C
:10051000E491E150E23108F0B3C0F0E08827EC56F6
:10052000FD4F8F4F0C94010CA602AE02B302BD0228
:10053000C7024003D102D902E102EB02F502FF0239
:100540000E031803400322032C03360384B580688E
:1005500084BDC7BDDF91CF911F91089584B580629E
:1005600084BDC8BDF7CF80918000806880938000F3
:10057000D0938900C0938800EDCF80918000806285
:1005800080938000D0938B00C0938A00E3CF80914A
:100590008000886080938000D0938D00C0938C0091
:1005A000D9CF8091B00080688093B000C093B30031
:1005B000D1CF8091B00080628093B000C093B4002E
:1005C000C9CF80919000806880939000D09399006B
:1005D000C0939800BFCF809190008062809390007C
:1005E000D0939B00C0939A00B5CF80919000886013
:1005F00080939000D0939D00C0939C00ABCF8091DE
:10060000A00080688093A0008091A0008F7B8093E1
:10061000A000D093A900C093A8009CCF8091A00017
:1006200080628093A000D093AB00C093AA0092CFC9
:100630008091A00088608093A000D093AD00C0930B
:10064000AC0088CF80912001806880932001D093F6
:100650002901C09328017ECF809120018062809380
:100660002001D0932B01C0932A0174CF80912001E7
:10067000886080932001D0932D01C0932C016ACF14
:10068000C038D1050CF03ECF33CF2FB7F89460912E
:10069000C7027091C8028091C9029091CA022FBF0F
:1006A0000895AF92BF92CF92DF92EF92FF920F9395
:1006B0001F93CF93DF936C017B018B01040F151FF8
:1006C000EB015E01AE18BF08C017D10759F0699160
:1006D000D601ED91FC910190F081E02DC6011995B4
:1006E000892B79F7C501DF91CF911F910F91FF9071
:1006F000EF90DF90CF90BF90AF900895FC01538DA5
:10070000448D252F30E0842F90E0821B930B5417EB
:1007100010F0CF96089501970895FC01918D828D78
:10072000981761F0A28DAE0FBF2FB11D5D968C9111
:10073000928D9F5F9F73928F90E008958FEF9FEF50
:100740000895FC01918D828D981731F0828DE80F0C
:10075000F11D858D90E008958FEF9FEF0895FC01C6
:10076000918D228D892F90E0805C9F4F821B910993
:100770008F73992708958BEF92E00E94AF0321E0D9
:10078000892B09F420E0822F089588E993E00E94E4
:10079000AF0321E0892B09F420E0822F0895FC01AA
:1007A000A48DA80FB92FB11DA35ABF4F2C91848DD2
:1007B00090E001968F739927848FA689B7892C932F
:1007C000A089B1898C91837080648C93938D848D82
:1007D000981306C00288F389E02D80818F7D808385
:1007E0000895EF92FF920F931F93CF93DF93EC0145
:1007F00081E0888F9B8D8C8D98131AC0E889F989C8
:10080000808185FF15C09FB7F894EE89FF896083CA
:10081000E889F98980818370806480839FBF81E04B
:1008200090E0DF91CF911F910F91FF90EF9008958D
:10083000F62E0B8D10E00F5F1F4F0F731127E02E68
:100840008C8D8E110CC00FB607FCFACFE889F989A0
:10085000808185FFF5CFCE010E94CF03F1CFEB8DD4
:10086000EC0FFD2FF11DE35AFF4FF0829FB7F89474
:100870000B8FEA89FB8980818062CFCFCF93DF9392
:10088000EC01888D8823B9F0AA89BB89E889F989A8
:100890008C9185FD03C0808186FD0DC00FB607FCDD
:1008A000F7CF8C9185FFF2CF808185FFEDCFCE0110
:1008B0000E94CF03E9CFDF91CF91089580E090E0CF
:1008C000892B29F00E94C50381110E94000080E05D
:1008D00090E0892B49F080E090E0892B29F00E947C
:1008E000000081110E94000080E090E0892B49F017
:1008F00080E090E0892B29F00E94000081110E9485
:10090000000080E090E0892B29F00E94BB03811158
:100910000C9400000895FB019081892790E1899F44
:1009200090011124822790E0382F2227AC0163E048
:10093000440F551F6A95E1F724273527418150E080
:100940002427352774E0959587957A95E1F78227D6
:100950009327918380830895CF92DF92EF92FF9245
:100960000F931F93CF93DF93CDB7DEB769970FB681
:10097000F894DEBF0FBECDBF8C0180E1FB01DE012C
:10098000179601900D928A95E1F729833A834B835C
:100990005C8381E08D838E831F8A97E1FE0131960F
:1009A000D801189601900D929A95E1F797E1D80138
:1009B00017969C9317972EEF12962C9312971396D7
:1009C0009C93139792E015969C93159716968C938B
:1009D00016978091D20214968C938F5F8093D202E7
:1009E0008FEF9FEF998F888F7801B3E0EB0EF11CAA
:1009F0006801EFE1CE0ED11CBE01685E7F4FCE14C0
:100A0000DF0431F0D7018D917D010E948B04F4CF7A
:100A100088EA0E948B04388D298DC8010896F80158
:100A2000A381A80FB92FB11D3C93E381E80FF92FE3
:100A3000F11D21838FE190E069960FB6F894DEBF37
:100A40000FBECDBFDF91CF911F910F91FF90EF901F
:100A5000DF90CF900895FC0101900020E9F73197D5
:100A6000AF01481B590BBC0188E993E00C9451037A
:100A70008F929F92AF92BF920F931F93CF93DF936A
:100A8000CDB7DEB7A1970FB6F894DEBF0FBECDBFCE
:100A900019A2423008F44AE08E010F5D1F4F842EE8
:100AA000912CB12CA12CA50194010E94BC0BE62F26
:100AB000B901CA01EA30F4F4E05DD801EE938D018A
:100AC000232B242B252B79F790E080E0109719F049
:100AD000CD010E942B05A1960FB6F894DEBF0FBE84
:100AE000CDBFDF91CF911F910F91BF90AF909F909D
:100AF0008F900895E95CE1CFCF92DF92EF92FF9261
:100B0000CF93DF936C01990FEE08FF08F7FE1FC02B
:100B10006DE288E993E00E94F103EC0166277727F4
:100B2000CB016C197D098E099F094AE00E943805A6
:100B3000C80FD91F82E192E00E942B058C0F9D1FE8
:100B4000DF91CF91FF90EF90DF90CF9008954AE032
:100B5000C701B6010E943805EC01ECCF4F925F92BD
:100B60006F927F928F929F92AF92BF92CF92DF92BD
:100B7000EF92FF926B017C01AC019B010E945B0E26
:100B80008823C1F085E192E00E942B057C0182E17F
:100B900092E00E942B058E0D9F1DFF90EF90DF903D
:100BA000CF90BF90AF909F908F907F906F905F900D
:100BB0004F90089546015701E894B7F82FEF3FEFA3
:100BC0004FE75FE7C501B4010E945B0E81110DC0C4
:100BD0002FEF3FEF4FE75FE7C501B4010E948A0C9A
:100BE00018161CF489E192E0CFCF2FEF3FEF4FE7CB
:100BF0005FE4C701B6010E94E90D18161CF48DE1EF
:100C000092E0C2CF2FEF3FEF4FE75FECC701B60195
:100C10000E948A0C87FDF3CF20E030E0A901C701D4
:100C2000B6010E948A0CB12CA12C87FF0AC06DE28C
:100C300088E993E00E94F1035C01F7FAF094F7F879
:100C4000F0942AE037ED43EA5BE3C701B6010E9466
:100C50001E0C2B013C010E94080D6B017C010E94BF
:100C6000370D9B01AC01C301B2010E941D0C2B0189
:100C70003C014AE0C701B6010E9438057C01EA0C3C
:100C8000FB1C6EE288E993E00E94F103E80EF91E76
:100C900020E030E040E251E4C301B2010E94EE0DD9
:100CA0002B013C010E94080D4B01B12CA12C4AE004
:100CB000C501B4010E943805E80EF91EC501B40152
:100CC0000E94370D9B01AC01C301B2010E941D0CB3
:100CD00020E030E040E251E40E94EE0D0E94080D59
:100CE00090E080E04AE00E943805E80EF91E4FCF00
:100CF0001F920F920FB60F9211242F933F938F9351
:100D00009F93AF93BF938091C7029091C802A09127
:100D1000C902B091CA023091C60223E0230F2D37D9
:100D200058F50196A11DB11D2093C6028093C702FC
:100D30009093C802A093C902B093CA028091C202E4
:100D40009091C302A091C402B091C5020196A11D69
:100D5000B11D8093C2029093C302A093C402B093CA
:100D6000C502BF91AF919F918F913F912F910F90AD
:100D70000FBE0F901F90189526E8230F0296A11D15
:100D8000B11DD2CF1F920F920FB60F9211240BB646
:100D90000F922F933F934F935F936F937F938F9314
:100DA0009F93AF93BF93EF93FF938BEF92E00E94DB
:100DB000CF03FF91EF91BF91AF919F918F917F9161
:100DC0006F915F914F913F912F910F900BBE0F90BC
:100DD0000FBE0F901F9018951F920F920FB60F9293
:100DE00011240BB60F922F938F939F93EF93FF9342
:100DF000E0910B03F0910C038081E0911103F091DD
:100E0000120382FD1DC09081809114038F5F8F7348
:100E100020911503821741F0E0911403F0E0E550B2
:100E2000FD4F958F80931403FF91EF919F918F91C8
:100E30002F910F900BBE0F900FBE0F901F90189523
:100E40008081F2CF1F920F920FB60F9211240BB632
:100E50000F922F933F934F935F936F937F938F9353
:100E60009F93AF93BF93EF93FF9388E993E00E9422
:100E7000CF03FF91EF91BF91AF919F918F917F91A0
:100E80006F915F914F913F912F910F900BBE0F90FB
:100E90000FBE0F901F9018951F920F920FB60F92D2
:100EA00011240BB60F922F938F939F93EF93FF9381
:100EB000E091A803F091A9038081E091AE03F09145
:100EC000AF0382FD1DC090818091B1038F5F8F734E
:100ED0002091B203821741F0E091B103F0E0E856AF
:100EE000FC4F958F8093B103FF91EF919F918F916C
:100EF0002F910F900BBE0F900FBE0F901F90189563
:100F00008081F2CFCF92DF92EF92FF920F931F93E7
:100F1000E82FF92F05C0015011092109310961F1AC
:100F2000908196239417B9F305C001501109210946
:100F3000310911F1908196239413F7CFC12CD12C54
:100F4000E12CF12C0AC08FEFC81AD80AE80AF80A77
:100F50000C151D052E053F0579F080818623841729
:100F600091F36C2D7D2D8E2D9F2D1F910F91FF9054
:100F7000EF90DF90CF90089560E070E080E090E027
:100F80001F910F91FF90EF90DF90CF900895EBEFBE
:100F9000F2E01382128248EE53E060E070E0448396
:100FA00055836683778384E092E09183808325E391
:100FB00031E03587248724E331E03787268720E333
:100FC00031E0318B208B21E331E0338B228B22E324
:100FD00031E0358B248B26E331E0378B268B118E65
:100FE000128E138E148EE8E9F3E01382128244838A
:100FF0005583668377839183808385EC90E0958722
:10100000848784EC90E09787868780EC90E0918BD2
:10101000808B81EC90E0938B828B82EC90E0958BBF
:10102000848B86EC90E0978B868B118E128E138EBC
:10103000148EE5E3F4E082E0808383E0818384E042
:10104000838385E0848389E082838AE085830895B1
:10105000CF93DF93CDB7DEB7CC5DD1090FB6F8944F
:10106000DEBF0FBECDBF789484B5826084BD84B5E9
:10107000816084BD85B5826085BD85B5816085BD93
:1010800080916E00816080936E001092810080914B
:1010900081008260809381008091810081608093D3
:1010A0008100809180008160809380008091B100F8
:1010B00084608093B1008091B00081608093B00023
:1010C0008091910082608093910080919100816075
:1010D0008093910080919000816080939000809136
:1010E000A10082608093A1008091A1008160809323
:1010F000A1008091A00081608093A00080912101D7
:10110000826080932101809121018160809321017F
:101110008091200181608093200180917A00846019
:1011200080937A0080917A00826080937A00809127
:101130007A00816080937A0080917A008068809341
:101140007A001092C10088E993E00E948A018BEF37
:1011500092E00E948A0181E292E00E942B0582E1E6
:1011600092E00E942B0561E0809135040E943D02CF
:1011700061E0809136040E943D0261E08091370475
:101180000E943D0261E0809138040E943D0261E0CE
:10119000809139040E943D0261E080913A040E94EE
:1011A0003D0260E089E30E943D0260E086E00E942B
:1011B0003D020E94450360939802709399028093C8
:1011C0009A0290939B02DD24D39430E5232E312C98
:1011D000E6E2F2E06491E0EEF1E08491E82FF0E0E5
:1011E000EE0FFF1FE457FE4F8591949100E412E447
:1011F0002FE030E0462F0E948207611571058105BE
:10120000910529F06F5F7F4F8F4F9F4F9F70072E83
:10121000000C880B990B9B01AC01215E3340410906
:101220005109AEE5B0E00E94B10B21EE33E040E0A1
:1012300050E00E94920B29013A01F5E24F1A510841
:10124000610871085092A9024092A80280917B0027
:10125000877F80937B0023E420937C0080917A0039
:10126000806480937A0080917A00982F9074C92EC0
:1012700086FDF9CF80917800A0907900BA2CA82E35
:1012800095010B2C000C440B550B2D563140410998
:101290005109AEE5B0E00E94B10B2FEA31E040E029
:1012A00050E00E94920B89019A010552110921090F
:1012B00031090250110980918C0281110CC00E94E9
:1012C0004503609388027093890280938A02909309
:1012D0008B02D0928C020E944503209188023091AB
:1012E000890240918A0250918B02621B730B840B1E
:1012F000950B683B7B4081059105E0F00E9445031A
:10130000609388027093890280938A0290938B0283
:1013100082E392E00E942B05C5010E947C058FE3C9
:1013200092E00E942B05C8010E947C051093C10227
:101330000093C0027201E01AF10AB7010F2C000CF1
:10134000880B990B0E94390D2B013C010E9445032B
:10135000009198021091990220919A0230919B027B
:10136000601B710B820B930B0E94370D20E030E065
:101370004AE754E40E948F0C4B015C010E94450334
:10138000609398027093990280939A0290939B02C3
:1013900020E030E040E250E4C301B2010E94EE0DD3
:1013A000A50194010E94EE0D2091940230919502C6
:1013B00040919602509197020E941E0C4B015C01D5
:1013C00020E030E048EC53EC0E948A0C87FD3CC0E2
:1013D00020E030E048EC53E4C501B4010E94E90D7F
:1013E000181634F4812C912C98ECA92E93E4B92E84
:1013F0008092940290929502A0929602B0929702E7
:10140000C7010196039738F51092BF021092BE02F1
:10141000B12CA12C10E000E0F3E3F09FC001F19F9C
:10142000900D1124B1010E94ED0B4B018091370406
:101430000E946E0201151105B9F560E08091350436
:101440000E94B10160E039C0812C912C88ECA82E5B
:1014500083ECB82ECDCF20E030E040EA50E4C30169
:10146000B2010E94EE0DA50194010E941E0C0E9483
:10147000010D9B018B016139714014F000E911E00D
:1014800000378EEF180714F400E71EEFAA24BB24E0
:10149000A01AB10AB092BF02A092BE0212161306A1
:1014A0000CF43DC18501B8CF8091350461E0CC20BA
:1014B00039F260E00E94B10161E0809136040E943F
:1014C000B101B40180913A040E946E0260E0809103
:1014D0003804012B09F41FC18091380461E0CC204D
:1014E00009F419C160E00E94B10161E08091390402
:1014F0000E94B1018091A00281110CC00E9445039D
:1015000060939C0270939D0280939E0290939F0231
:10151000D092A0020E94450300919C0210919D026E
:1015200020919E0230919F02601B710B820B930BE6
:10153000683B7B4081059105C0F00E9445036093A4
:101540009C0270939D0280939E0290939F028EE472
:1015500092E00E942B05C7010E947C058DE592E078
:101560000E942B05C5010E947C058091B202811169
:101570000CC00E9445036093AE027093AF0280934B
:10158000B0029093B102D092B2020E944503009142
:10159000AE021091AF022091B0023091B102601BF7
:1015A000710B820B930B683B7B4081059105A0F08A
:1015B0000E9445036093AE027093AF028093B00225
:1015C0009093B1028FE392E00E942B058091A802D4
:1015D0009091A9020E947C050091C0021091C10265
:1015E0000E9445038090BA029090BB02A090BC027A
:1015F000B090BD02681979098A099B09683E734059
:1016000081059105B8F1B801110F880B990B0E9463
:10161000390D4B015C010E9445036093BA0270933F
:10162000BB028093BC029093BD02A50194016AE6BF
:1016300072E0CE0101960E94AC0487E792E00E941E
:101640002B05C501B4010E94AE050C8110E0085FB6
:101650001F4FA801BE016D5F7F4FCE018F589F4F76
:101660000E94600EA801BE016F587F4F8BEF92E081
:101670000E9451030091BE021091BF020E944503D7
:101680008090BA029090BB02A090BC02B090BD02C4
:10169000681979098A099B09683E7340810591059B
:1016A000B8F1B801110F880B990B0E94390D4B014D
:1016B0005C010E9445036093BA027093BB02809361
:1016C000BC029093BD02A50194016DE772E0CE01CA
:1016D00001960E94AC0487E792E00E942B05C501A9
:1016E000B4010E94AE050C8110E0085F1F4FA801F5
:1016F000BE016D5F7F4FCE018F589F4F0E94600EDD
:10170000A801BE016F587F4F8BEF92E00E945103FA
:101710000E945E045DCD0E94B10160E0E7CECC2462
:10172000C3947ACE052E97FB1EF400940E94A90B59
:1017300057FD07D00E94BC0B07FC03D04EF40C945D
:10174000A90B50954095309521953F4F4F4F5F4FD6
:10175000089590958095709561957F4F8F4F9F4F1D
:1017600008950E94DE0BA59F900DB49F900DA49F3D
:10177000800D911D11240895A1E21A2EAA1BBB1BF6
:10178000FD010DC0AA1FBB1FEE1FFF1FA217B3074D
:10179000E407F50720F0A21BB30BE40BF50B661F63
:1017A000771F881F991F1A9469F760957095809527
:1017B00090959B01AC01BD01CF010895A29FB0019E
:1017C000B39FC001A39F700D811D1124911DB29F75
:1017D000700D811D1124911D089597FB072E16F49D
:1017E000009407D077FD09D00E94090C07FC05D0B2
:1017F0003EF4909581959F4F0895709561957F4F28
:101800000895EE0FFF1F881F8BBF0790F691E02D04
:101810001994AA1BBB1B51E107C0AA1FBB1FA61727
:10182000B70710F0A61BB70B881F991F5A95A9F789
:1018300080959095BC01CD0108955058BB27AA27EB
:101840000E94350C0C94AF0D0E94A10D38F00E943F
:10185000A80D20F039F49F3F19F426F40C949E0D46
:101860000EF4E095E7FB0C94980DE92F0E94C00D53
:1018700058F3BA17620773078407950720F079F4C5
:10188000A6F50C94E20D0EF4E0950B2EBA2FA02DC8
:101890000B01B90190010C01CA01A0011124FF271D
:1018A000591B99F0593F50F4503E68F11A16F04018
:1018B000A22F232F342F4427585FF3CF4695379517
:1018C0002795A795F0405395C9F77EF41F16BA0BDC
:1018D000620B730B840BBAF09150A1F0FF0FBB1F8A
:1018E000661F771F881FC2F70EC0BA0F621F731FD3
:1018F000841F48F4879577956795B795F7959E3F30
:1019000008F0B0CF9395880F08F09927EE0F9795C0
:10191000879508950E94740D08F481E008950E944F
:10192000A30C0C94AF0D0E94A80D58F00E94A10DBD
:1019300040F029F45F3F29F00C94980D51110C945C
:10194000E30D0C949E0D0E94C00D68F39923B1F332
:10195000552391F3951B550BBB27AA2762177307D5
:10196000840738F09F5F5F4F220F331F441FAA1F69
:10197000A9F335D00E2E3AF0E0E832D09150504025
:10198000E695001CCAF72BD0FE2F29D0660F771FD3
:10199000881FBB1F261737074807AB07B0E809F0B9
:1019A000BB0B802DBF01FF2793585F4F3AF09E3F3E
:1019B000510578F00C94980D0C94E30D5F3FE4F31F
:1019C000983ED4F3869577956795B795F7959F5F81
:1019D000C9F7880F911D9695879597F90895E1E0CD
:1019E000660F771F881FBB1F621773078407BA072C
:1019F00020F0621B730B840BBA0BEE1F88F7E09587
:101A000008950E94080D6894B1110C94E30D089597
:101A10000E94C80D88F09F5798F0B92F9927B751A9
:101A2000B0F0E1F0660F771F881F991F1AF0BA9582
:101A3000C9F714C0B13091F00E94E20DB1E00895F1
:101A40000C94E20D672F782F8827B85F39F0B93FE3
:101A5000CCF3869577956795B395D9F73EF4909535
:101A60008095709561957F4F8F4F9F4F0895E894B3
:101A700009C097FB3EF490958095709561957F4FD6
:101A80008F4F9F4F9923A9F0F92F96E9BB27939584
:101A9000F695879577956795B795F111F8CFFAF494
:101AA000BB0F11F460FF1BC06F5F7F4F8F4F9F4FC5
:101AB00016C0882311F096E911C0772321F09EE823
:101AC000872F762F05C0662371F096E8862F70E089
:101AD00060E02AF09A95660F771F881FDAF7880F63
:101AE0009695879597F90895990F0008550FAA0BB9
:101AF000E0E8FEEF16161706E807F907C0F0121621
:101B00001306E407F50798F0621B730B840B950B23
:101B100039F40A2661F0232B242B252B21F4089578
:101B20000A2609F4A140A6958FEF811D811D089515
:101B300097F99F6780E870E060E008959FEF80EC80
:101B4000089500240A941616170618060906089523
:101B500000240A9412161306140605060895092E89
:101B60000394000C11F4882352F0BB0F40F4BF2BF8
:101B700011F460FF04C06F5F7F4F8F4F9F4F089538
:101B800057FD9058440F551F59F05F3F71F047952E
:101B9000880F97FB991F61F09F3F79F08795089513
:101BA000121613061406551FF2CF4695F1DF08C032
:101BB000161617061806991FF1CF8695710561054F
:101BC00008940895E894BB2766277727CB0197F9F7
:101BD00008950E94740D08F48FEF08950E94010E7D
:101BE0000C94AF0D0E94A10D38F00E94A80D20F0BA
:101BF000952311F00C94980D0C949E0D11240C94C7
:101C0000E30D0E94C00D70F3959FC1F3950F50E056
:101C1000551F629FF001729FBB27F00DB11D639F9E
:101C2000AA27F00DB11DAA1F649F6627B00DA11D44
:101C3000661F829F2227B00DA11D621F739FB00DEA
:101C4000A11D621F839FA00D611D221F749F33275A
:101C5000A00D611D231F849F600D211D822F762FF3
:101C60006A2F11249F5750409AF0F1F088234AF0D0
:101C7000EE0FFF1FBB1F661F771F881F915050403C
:101C8000A9F79E3F510580F00C94980D0C94E30D3C
:101C90005F3FE4F3983ED4F3869577956795B795C3
:101CA000F795E7959F5FC1F7FE2B880F911D9695DD
:101CB000879597F908950E94740D880B990B0895E4
:101CC000FB01DC0102C001900D9241505040D8F759
:061CD0000895F894FFCF17
:101CD60000000000F10351037E033E04AF038D03B1
:101CE600A1030D0A006E616E00696E66006F76666E
:101CF60000426F6174205275646465722054657386
:101D06007400527564646572204144433A2000525F
:101D1600756464657220616E676C653A2000527561
:101D260064646572206572726F723A20005275643F
:101D36006465722050574D3A20005255444445522E
:101D46005F414E474C45004D41563A20005255449E
:081D56004445525F50574D0057
:00000001FF
