:100000000C944A010C947B010C947B010C947B01B1
:100010000C947B010C947B010C947B010C947B0170
:100020000C947B010C947B010C947B010C947B0160
:100030000C947B010C947B010C947B010C947B0150
:100040000C947B010C947B010C947B010C947B0140
:100050000C947B010C947B010C947B010C94DB03CE
:100060000C947B010C944F040C9425040C947B019C
:100070000C947B010C947B010C947B010C947B0110
:100080000C947B010C947B010C947B010C947B0100
:100090000C947B010C947B010C947B010C947B01F0
:1000A0000C947B010C947B010C947B010C947B01E0
:1000B0000C947B010C947B010C947B010C947B01D0
:1000C0000C947B010C947B010C947B010C947B01C0
:1000D0000C947B010C947B010C947B010C947B01B0
:1000E0000C947B010C9451020C94F8020C9485043E
:1000F0000C9462080C944E080C946C080C94B20199
:100100000C94EB010C94E7010C943A080C947302E4
:100110000C94DF070C94DD010C94F3070C94AB02F4
:100120000C940D080C9444080C94D9010C94860787
:100130000C942B080C94DA070C9421080C94C4013D
:100140000C9417080C94CC010C9465020C940508CF
:100150000C9403020C94F9010C94FF010C94F1012E
:100160000C94AD010C94F5010C9458080C94E9071B
:100170000C9415020C94E3010C94FD070C94D0012F
:100180000C9442020C94C8010C94D301000021008D
:10019000240027002A002D00300033000101000058
:1001A000040107010A0100002200250028002B009D
:1001B0002E003100340002010000050108010B018E
:1001C00005050505070508080808020202020A0AD3
:1001D00008080404040401010101010101010303F1
:1001E000030303030303040707070C0C0C0C0C0C9C
:1001F0000C0C0202020206060606060606060B0B99
:100200000B0B0B0B0B0B01021020200808102040D9
:1002100010204080020102010804020101020408CA
:100220001020408080402010080402018004020158
:1002300080402010080402010804020101020408A1
:1002400010204080010204081020408000000A0BAA
:1002500002090C0D0E080703040100000000000055
:10026000000000000000000000000000000000008E
:10027000000000000000000012111000000000004B
:10028000000000000000000000000000000000006E
:100290000000850411241FBECFEFD1E2DEBFCDBF29
:1002A00000E00CBF12E0A0E0B2E0EEE8F6E100E012
:1002B0000BBF02C007900D92AC38B107D9F723E00D
:1002C000ACE8B2E001C01D92A136B207E1F711E03F
:1002D000CAE4D1E000E006C021970109802FFE01A9
:1002E0000E94EB08C934D10780E00807A9F70E94F3
:1002F000C8040C94450B0C940000282F30E0F90141
:10030000E45BFD4F9491F901EA5FFD4F4491205465
:100310003E4FF9012491222309F435C0992311F1AC
:1003200091509231F8F4E92FF0E08827E556FE4F1E
:100330008F4F0C94EB08CC01D001AD01C401C80172
:10034000B201D301D901DD01E301E701EB01F101C4
:10035000F501B201F901FF010302809180008F775E
:1003600080938000E22FF0E0EE0FFF1FEA55FE4F72
:10037000A591B4918FB7F894EC91611148C0409564
:100380004E234C938FBF0895809180008F7DE8CFDE
:1003900080918000877FE4CF84B58F7784BDE2CFE2
:1003A00084B58F7DFBCF8091B0008F778093B000B4
:1003B000D9CF8091B0008F7DF9CF809190008F7759
:1003C00080939000CFCF809190008F7DF9CF809166
:1003D0009000877FF5CF8091A0008F778093A00059
:1003E000C1CF8091A0008F7DF9CF8091A000877F41
:1003F000F5CF809120018F7780932001B3CF80913A
:1004000020018F7DF9CF80912001877FF5CF4E2B82
:10041000B8CF2FB7F8946091B6027091B70280916F
:10042000B8029091B9022FBF0895AF92BF92CF92B8
:10043000DF92EF92FF920F931F93CF93DF936C01A4
:100440007B018B01040F151FEB015E01AE18BF0885
:10045000C017D10759F06991D601ED91FC91019037
:10046000F081E02DC6011995892B79F7C501DF913F
:10047000CF911F910F91FF90EF90DF90CF90BF90A1
:10048000AF900895FC01538D448D252F30E0842FCB
:1004900090E0821B930B541710F0CF9608950197AC
:1004A0000895FC01918D828D981761F0A28DAE0F99
:1004B000BF2FB11D5D968C91928D9F5F9F73928F20
:1004C00090E008958FEF9FEF0895FC01918D828D4C
:1004D000981731F0828DE80FF11D858D90E0089519
:1004E0008FEF9FEF0895FC01918D228D892F90E071
:1004F000805C9F4F821B91098F73992708958AEB27
:1005000092E00E94730221E0892B09F420E0822FFF
:100510000895FC01A48DA80FB92FB11DA35ABF4F98
:100520002C91848D90E001968F739927848FA689F2
:10053000B7892C93A089B1898C91837080648C9346
:10054000938D848D981306C00288F389E02D8081F5
:100550008F7D80830895EF92FF920F931F93CF9327
:10056000DF93EC0181E0888F9B8D8C8D98131AC0EE
:10057000E889F989808185FF15C09FB7F894EE89D5
:10058000FF896083E889F989808183708064808332
:100590009FBF81E090E0DF91CF911F910F91FF907D
:1005A000EF900895F62E0B8D10E00F5F1F4F0F7325
:1005B0001127E02E8C8D8E110CC00FB607FCFACFE0
:1005C000E889F989808185FFF5CFCE010E948902F3
:1005D000F1CFEB8DEC0FFD2FF11DE35AFF4FF082B1
:1005E0009FB7F8940B8FEA89FB8980818062CFCF17
:1005F000CF93DF93EC01888D8823B9F0AA89BB895A
:10060000E889F9898C9185FD03C0808186FD0DC044
:100610000FB607FCF7CF8C9185FFF2CF808185FF65
:10062000EDCFCE010E948902E9CFDF91CF910895ED
:1006300080E090E0892B29F00E947F0281110E94C6
:10064000000080E090E0892B49F080E090E0892B69
:1006500029F00E94000081110E94000080E090E0DB
:10066000892B49F080E090E0892B29F00E9400005E
:1006700081110E94000080E090E0892B49F080E029
:1006800090E0892B29F00E94000081110C94000059
:100690000895FC0101900020E9F73197AF01481B54
:1006A000590BBC018AEB92E00C9415028F929F9239
:1006B000AF92BF92CF92DF92EF92FF920F931F9370
:1006C000CF93DF93CDB7DEB7A1970FB6F894DEBF17
:1006D0000FBECDBF6C01990FEE08FF08F7FE47C0B3
:1006E0006DE28AEB92E00E94AB028C012227332755
:1006F000A9012C193D094E095F0919A2CE01819665
:100700007C019AE0892E912CA12CB12CCA01B9014F
:10071000A50194010E94A608605DF70162937F0124
:10072000211531054105510589F790E080E03097AA
:1007300019F0CF010E944903080F191F82E192E0CE
:100740000E944903800F911FA1960FB6F894DEBF57
:100750000FBECDBFDF91CF911F910F91FF90EF9012
:10076000DF90CF90BF90AF909F908F900895A7019A
:10077000960119A28E010F5D1F4F8AE0C82ED12C61
:10078000E12CF12CCA01B901A70196010E94A6082B
:10079000605DF80162938F01211531054105510516
:1007A00089F7309729F0CF010E9449038C01C6CF09
:1007B00010E000E0C3CF1F920F920FB60F921124EA
:1007C0002F933F938F939F93AF93BF938091B602E4
:1007D0009091B702A091B802B091B9023091B502E0
:1007E00023E0230F2D3758F50196A11DB11D20934D
:1007F000B5028093B6029093B702A093B802B0936B
:10080000B9028091B1029091B202A091B302B0916D
:10081000B4020196A11DB11D8093B1029093B20262
:10082000A093B302B093B402BF91AF919F918F9107
:100830003F912F910F900FBE0F901F90189526E8B3
:10084000230F0296A11DB11DD2CF1F920F920FB69A
:100850000F9211240BB60F922F933F934F935F93F8
:100860006F937F938F939F93AF93BF93EF93FF9378
:100870008AEB92E00E948902FF91EF91BF91AF91C4
:100880009F918F917F916F915F914F913F912F91A8
:100890000F900BBE0F900FBE0F901F9018951F92D8
:1008A0000F920FB60F9211240BB60F922F938F93C6
:1008B0009F93EF93FF93E091CA02F091CB02808166
:1008C000E091D002F091D10282FD1DC09081809113
:1008D000D3028F5F8F732091D402821741F0E09191
:1008E000D302F0E0E654FD4F958F8093D302FF9141
:1008F000EF919F918F912F910F900BBE0F900FBE94
:100900000F901F9018958081F2CFEAEBF2E01382EE
:10091000128288EE93E0A0E0B0E084839583A68302
:10092000B78384E092E09183808385EC90E09587A3
:10093000848784EC90E09787868780EC90E0918BA9
:10094000808B81EC90E0938B828B82EC90E0958B96
:10095000848B86EC90E0978B868B118E128E138E93
:10096000148EE7E5F3E082E0808384E0818389E010
:10097000828386E0838386E3848387E0858388E0BF
:1009800086838AE087838CE0808787E38187089568
:10099000789484B5826084BD84B5816084BD85B55A
:1009A000826085BD85B5816085BD80916E00816066
:1009B00080936E001092810080918100826080930C
:1009C000810080918100816080938100809180000E
:1009D0008160809380008091B10084608093B10039
:1009E0008091B00081608093B0008091910082601E
:1009F000809391008091910081608093910080911B
:100A000090008160809390008091A100826080932B
:100A1000A1008091A10081608093A1008091A0003D
:100A200081608093A00080912101826080932101E8
:100A3000809121018160809321018091200181605A
:100A40008093200180917A00846080937A00809165
:100A50007A00826080937A0080917A00816080932E
:100A60007A0080917A00806880937A001092C100A9
:100A7000E091CA02F091CB0282E08083E091C6024D
:100A8000F091C7021082E091C802F091C90280E1A2
:100A900080831092D202E091CE02F091CF0286E0E4
:100AA0008083E091CC02F091CD02808180618083CF
:100AB000E091CC02F091CD02808188608083E0914A
:100AC000CC02F091CD02808180688083E091CC02DD
:100AD000F091CD0280818F7D808385E192E00E943C
:100AE000490382E192E00E944903EEE3F2E024919F
:100AF000E8EFF1E084918823C1F090E0880F991F1E
:100B0000FC01E457FE4FC591D491FC01EA55FE4F1C
:100B1000A591B4919FB7F8948881E22FE0958E2338
:100B200088838C91E823EC939FBF0E940902609315
:100B3000A1027093A2028093A3029093A402332493
:100B40003394D0E0C0E08AEB92E00E9473022091DF
:100B5000900218161906DCF5211139C08BEC97E0CC
:100B60000197F1F78AEB92E00E945102182F8093CF
:100B70008F02682F8AEB92E00E94AB0280ED810F1A
:100B80008A3008F486C11D3219F430928E02DBCF10
:100B90008AEB92E00E947302181619062CF48AEB75
:100BA00092E00E945102F4CF30929002D0938D02D5
:100BB000C0938C0280918E02882349F0D195C19513
:100BC000D109D0938D02C0938C0210928E02C091F5
:100BD0008C02D0918D023C2F2D2FCE32D10514F0F6
:100BE0003DE220E0832F922F833D2FEF920714F4F4
:100BF00083ED9FEF90938D0280938C028091900201
:100C0000882399F01092900286E292E00E944903B4
:100C1000CE010E94560387E392E00E94490380912F
:100C20008C0290918D020E945603C0918C02D0914B
:100C30008D0280917B00877F80937B0082E480938C
:100C40007C0080917A00806480937A0080917A00A1
:100C5000982F9074292E86FDF9CF8091780000910D
:100C60007900102F082F035F1F4F9801012E000CF1
:100C7000440B550B2A55314041095109AAE5B0E012
:100C80000E949B082AE831E040E050E00E947C0886
:100C900069017A018DE2C81AD108E108F108809152
:100CA000950281110CC00E94090260939102709319
:100CB00092028093930290939402309295020E9444
:100CC00009028090910290909202A0909302B090BD
:100CD0009402681979098A099B09683B7B40810560
:100CE0009105C0F00E9409026093910270939202F4
:100CF000809393029093940284E592E00E944903CA
:100D0000C8010E94560381E692E00E944903C60191
:100D10000E945603CC19DD09D195C195D109BE01B8
:100D20000D2E000C880B990B0E94230A6B017C018D
:100D300020E030E040EF51E40E94D80A4B015C0112
:100D40000E9409020091A1021091A2022091A30227
:100D50003091A402601B710B820B930B0E94210A3D
:100D600020E030E04AE754E40E9479092B013C017D
:100D70000E9409026093A1027093A2028093A302D1
:100D80009093A4022DEC3CEC4CE45DE3C701B6016A
:100D90000E94D80AA30192010E94D80A20919D02C4
:100DA00030919E0240919F025091A0020E9408093A
:100DB0006B017C0120E030E048EC53EC0E947409A8
:100DC00087FD74C020E030E048EC53E4C701B60171
:100DD0000E94D30A181634F4C12CD12C68ECE62EEC
:100DE00063E4F62EC0929D02D0929E02E0929F0292
:100DF000F092A002A7019601C501B4010E94080962
:100E00000E94EB098B0160372EEF72070CF455C07E
:100E1000613921E072070CF068C17B0177FF06C0E1
:100E200078011195019511092224239423E3209F31
:100E3000C001219F900D112460E570E00E94D70849
:100E4000D09059032D2D30E0F901EA5FFD4FC49099
:100E5000F901E054FE4F8491882399F090E0880FC7
:100E6000991FFC01E457FE4FA591B491FC01EA558E
:100E7000FE4F459154918FB7F894EC91CE2ACC92C5
:100E80008FBF61157105E1F460E08D2D0E947D0139
:100E900041C02AE02C9FC0012D9F900D1124EC0130
:100EA000C10FD11D17FDDA95E0974DCEC12CD12C85
:100EB00058ECE52E53ECF52E95CF00E71EEFB0CFA2
:100EC0006F3F710511F461E0E0CFF901E45BFD4F84
:100ED000E491E150E23108F0FFC0F0E08827EC58DF
:100EE000F84F8F4F0C94EB088607DA07DF07E90706
:100EF000F3076C08FD0705080D08170821082B08E3
:100F00003A0844086C084E085808620884B580689E
:100F100084BD67BD8091570360E0012B09F4E1C0F7
:100F200061E0222009F4DDC060E00E947D0161E003
:100F3000809158030E947D018091A90281110CC00B
:100F40000E9409026093A5027093A6028093A702F3
:100F50009093A8023092A9020E9409020091A50272
:100F60001091A6022091A7023091A802601B710B7C
:100F7000820B930B683B7B4081059105C0F00E947A
:100F800009026093A5027093A6028093A702909332
:100F9000A80280E792E00E944903CE010E94560316
:100FA0008FE792E00E944903C7010E9456030E9406
:100FB0001803C7CD84B5806284BD68BDABCF809176
:100FC000800080688093800070938900609388001F
:100FD000A1CF8091800080628093800070938B000D
:100FE00060938A0097CF8091800088608093800012
:100FF00070938D0060938C008DCF8091B0008068DD
:101000008093B0006093B30085CF8091B000806280
:101010008093B0006093B4007DCF80919000806891
:1010200080939000709399006093980073CF8091A3
:10103000900080628093900070939B0060939A0070
:1010400069CF8091900088608093900070939D009C
:1010500060939C005FCF8091A00080688093A00087
:101060008091A0008F7B8093A0007093A900609373
:10107000A80050CF8091A00080628093A000709360
:10108000AB006093AA0046CF8091A0008860809357
:10109000A0007093AD006093AC003CCF8091200124
:1010A000806880932001709329016093280132CFDA
:1010B0008091200180628093200170932B016093C6
:1010C0002A0128CF809120018860809320017093AD
:1010D0002D0160932C011ECF603871050CF0F3CE0A
:1010E000D3CE0E947D0160E023CF80E9E82EFF246B
:1010F000F39400E911E09ACE052E97FB1EF40094BC
:101100000E94930857FD07D00E94A60807FC03D051
:101110004EF40C94930850954095309521953F4F8F
:101120004F4F5F4F089590958095709561957F4FD3
:101130008F4F9F4F08950E94C808A59F900DB49FA0
:10114000900DA49F800D911D11240895A1E21A2EE7
:10115000AA1BBB1BFD010DC0AA1FBB1FEE1FFF1F5B
:10116000A217B307E407F50720F0A21BB30BE40BAB
:10117000F50B661F771F881F991F1A9469F76095F2
:101180007095809590959B01AC01BD01CF010895AC
:10119000A29FB001B39FC001A39F700D811D1124B8
:1011A000911DB29F700D811D1124911D089597FB13
:1011B000072E16F4009407D077FD09D00E94F3089B
:1011C00007FC05D03EF4909581959F4F089570954A
:1011D00061957F4F0895EE0FFF1F881F8BBF07900B
:1011E000F691E02D1994AA1BBB1B51E107C0AA1F61
:1011F000BB1FA617B70710F0A61BB70B881F991FB8
:101200005A95A9F780959095BC01CD010895505845
:10121000BB27AA270E941F090C94990A0E948B0AD7
:1012200038F00E94920A20F039F49F3F19F426F416
:101230000C94880A0EF4E095E7FB0C94820AE92FDF
:101240000E94AA0A58F3BA17620773078407950722
:1012500020F079F4A6F50C94CC0A0EF4E0950B2E50
:10126000BA2FA02D0B01B90190010C01CA01A001F8
:101270001124FF27591B99F0593F50F4503E68F153
:101280001A16F040A22F232F342F4427585FF3CF94
:10129000469537952795A795F0405395C9F77EF465
:1012A0001F16BA0B620B730B840BBAF09150A1F0AE
:1012B000FF0FBB1F661F771F881FC2F70EC0BA0F34
:1012C000621F731F841F48F4879577956795B795BC
:1012D000F7959E3F08F0B0CF9395880F08F09927B7
:1012E000EE0F9795879508950E945E0A08F481E0B5
:1012F00008950E948D090C94990A0E94920A58F050
:101300000E948B0A40F029F45F3F29F00C94820A76
:1013100051110C94CD0A0C94880A0E94AA0A68F311
:101320009923B1F3552391F3951B550BBB27AA279E
:1013300062177307840738F09F5F5F4F220F331FD8
:10134000441FAA1FA9F335D00E2E3AF0E0E832D0A0
:1013500091505040E695001CCAF72BD0FE2F29D0A3
:10136000660F771F881FBB1F261737074807AB0775
:10137000B0E809F0BB0B802DBF01FF2793585F4FEA
:101380003AF09E3F510578F00C94820A0C94CD0AF5
:101390005F3FE4F3983ED4F3869577956795B795CC
:1013A000F7959F5FC9F7880F911D9695879597F9D7
:1013B0000895E1E0660F771F881FBB1F6217730750
:1013C0008407BA0720F0621B730B840BBA0BEE1F65
:1013D00088F7E09508950E94F2096894B1110C9481
:1013E000CD0A08950E94B20A88F09F5798F0B92F4D
:1013F0009927B751B0F0E1F0660F771F881F991F4A
:101400001AF0BA95C9F714C0B13091F00E94CC0A15
:10141000B1E008950C94CC0A672F782F8827B85F25
:1014200039F0B93FCCF3869577956795B395D9F7A1
:101430003EF490958095709561957F4F8F4F9F4FAB
:101440000895E89409C097FB3EF4909580957095B7
:1014500061957F4F8F4F9F4F9923A9F0F92F96E900
:10146000BB279395F695879577956795B795F11175
:10147000F8CFFAF4BB0F11F460FF1BC06F5F7F4F12
:101480008F4F9F4F16C0882311F096E911C0772324
:1014900021F09EE8872F762F05C0662371F096E82D
:1014A000862F70E060E02AF09A95660F771F881FFC
:1014B000DAF7880F9695879597F90895990F0008A0
:1014C000550FAA0BE0E8FEEF16161706E807F90716
:1014D000C0F012161306E407F50798F0621B730BB1
:1014E000840B950B39F40A2661F0232B242B252B32
:1014F00021F408950A2609F4A140A6958FEF811DD5
:10150000811D089597F99F6780E870E060E0089575
:101510009FEF80EC089500240A941616170618060B
:101520000906089500240A941216130614060506E7
:101530000895092E0394000C11F4882352F0BB0F78
:1015400040F4BF2B11F460FF04C06F5F7F4F8F4FDB
:101550009F4F089557FD9058440F551F59F05F3F16
:1015600071F04795880F97FB991F61F09F3F79F0C5
:1015700087950895121613061406551FF2CF469547
:10158000F1DF08C0161617061806991FF1CF8695C9
:101590007105610508940895E894BB2766277727AD
:1015A000CB0197F908950E945E0A08F48FEF089521
:1015B0000E94EB0A0C94990A0E948B0A38F00E9450
:1015C000920A20F0952311F00C94820A0C94880A58
:1015D00011240C94CD0A0E94AA0A70F3959FC1F3BE
:1015E000950F50E0551F629FF001729FBB27F00DD1
:1015F000B11D639FAA27F00DB11DAA1F649F662726
:10160000B00DA11D661F829F2227B00DA11D621F74
:10161000739FB00DA11D621F839FA00D611D221F2E
:10162000749F3327A00D611D231F849F600D211D12
:10163000822F762F6A2F11249F5750409AF0F1F095
:1016400088234AF0EE0FFF1FBB1F661F771F881FFE
:1016500091505040A9F79E3F510580F00C94820AAA
:101660000C94CD0A5F3FE4F3983ED4F386957795CA
:101670006795B795F795E7959F5FC1F7FE2B880FA4
:0E168000911D9695879597F90895F894FFCFE0
:10168E0000000000AB0215024202F8027302510282
:10169E0065020D0A00426F617420527564646572B2
:1016AE0020546573740052656365697665642061C4
:1016BE006E676C653A2000526563656976656420D5
:1016CE00616E676C6520636F6E73747261696E65AF
:1016DE00643A2000527564646572204144433A2096
:1016EE000052756464657220616E676C653A200005
:1016FE00527564646572206572726F723A20005280
:0C170E0075646465722050574D3A20004D
:00000001FF
