:100000000C9457010C9488010C9488010C9488017D
:100010000C9488010C9488010C9488010C9488013C
:100020000C9488010C9488010C9488010C9488012C
:100030000C9488010C9488010C9488010C9488011C
:100040000C9488010C9488010C9488010C9488010C
:100050000C9488010C9488010C9488010C9446043B
:100060000C9488010C941A050C94F0040C948801EB
:100070000C9488010C9488010C9488010C948801DC
:100080000C9488010C9488010C9488010C948801CC
:100090000C9488010C9488010C9488010C948801BC
:1000A0000C9488010C9488010C9488010C948801AC
:1000B0000C9488010C9488010C9488010C9488019C
:1000C0000C9488010C9488010C9488010C9488018C
:1000D0000C9488010C9488010C94BA040C9490043C
:1000E0000C9488010C9433020C94A0080C947608AC
:1000F0000C9437020C94FC010C94E6010C94B602AB
:100100000C94D8020C9425020C9458080C947A0292
:100110000C941A030C94AC080C9407020C94E101A3
:100120000C9417020C9482080C9429020C94D508A4
:100130000C94ED080C946A080C94B8080C94F8011F
:100140000C9405090C94C9080C94E1080C941B024A
:100150000C94CA020C94F9080C9467030C942D02B9
:100160000C940D020C9400020C9495050C94A702BB
:100170000C94F2070C9411020C9494080C945E08F1
:100180000C941F020C9404020C948B0800002000B5
:100190002300260029002C002F003200000100005F
:1001A00003010601090100002100240027002A00A4
:1001B0002D003000330001010000040107010A0195
:1001C00000002200250028002B002E003100340002
:1001D00002010000050108010B01050505050705E1
:1001E00008080808020202020A0A080804040404B3
:1001F00001010101010101010303030303030303DF
:10020000040707070C0C0C0C0C0C0C0C020202026D
:1002100006060606060606060B0B0B0B0B0B0B0B56
:100220000102102020080810204010204080020108
:1002300002010804020101020408102040808040ED
:1002400020100804020180040201804020100804EC
:10025000020108040201010204081020408001028A
:1002600004081020408000000A0B02090C0D0E0843
:10027000070304010000000000000000000000006F
:10028000000000000000000000000000000000006E
:10029000000012111000000000000000000000002B
:1002A000000000000000000000000000950511247F
:1002B0001FBECFEFD1E2DEBFCDBF00E00CBF12E02A
:1002C000A0E0B2E0E8ECF7E100E00BBF02C007906D
:1002D0000D92A636B107D9F723E0A6E6B2E001C039
:1002E0001D92A33CB207E1F711E0C7E5D1E000E0C1
:1002F00006C021970109802FFE010E948809C6359A
:10030000D10780E00807A9F70E94F6050C94E20BDC
:100310000C940000FC01A089B18982E08C93A48533
:10032000B5851C92A685B78580E18C93108EA48933
:10033000B58986E08C93A289B3898C9180618C9376
:10034000A289B3898C9188608C93A289B3898C919E
:1003500080688C930288F389E02D80818F7D808373
:100360000895282F30E0F901EA59FD4F9491F901E1
:10037000E05EFD4F449126523E4FF9012491222325
:1003800009F435C0992311F191509231F8F4E92F15
:10039000F0E08827E153FE4F8F4F0C94880900024C
:1003A0000402E101F801FC01E60107020D0211025D
:1003B00017021B021F0225022902E6012D02330249
:1003C0003702809180008F7780938000E22FF0E0E9
:1003D000EE0FFF1FE054FE4FA591B4918FB7F89434
:1003E000EC91611148C040954E234C938FBF089506
:1003F000809180008F7DE8CF80918000877FE4CF5F
:1004000084B58F7784BDE2CF84B58F7DFBCF80919B
:10041000B0008F778093B000D9CF8091B0008F7DEE
:10042000F9CF809190008F7780939000CFCF80910B
:1004300090008F7DF9CF80919000877FF5CF8091DC
:10044000A0008F778093A000C1CF8091A0008F7D06
:10045000F9CF8091A000877FF5CF809120018F7721
:1004600080932001B3CF809120018F7DF9CF8091BF
:100470002001877FF5CF4E2BB8CFCF93DF9390E04D
:10048000FC01E05EFD4F249186529E4FFC01849159
:100490008823D1F090E0880F991FFC01EA55FE4FA8
:1004A000A591B491FC01E054FE4FC591D491611126
:1004B0000EC09FB7F8948C91E22FE0958E238C9319
:1004C0002881E223E8839FBFDF91CF9108958FB702
:1004D000F894EC91E22BEC938FBFF6CF2FB7F89402
:1004E00060917F02709180028091810290918202DE
:1004F0002FBF0895AF92BF92CF92DF92EF92FF92FB
:100500000F931F93CF93DF936C017B018B01040F3B
:10051000151FEB015E01AE18BF08C017D10759F0D7
:100520006991D601ED91FC910190F081E02DC60119
:100530001995892B79F7C501DF91CF911F910F9103
:10054000FF90EF90DF90CF90BF90AF900895FC01A7
:10055000538D448D252F30E0842F90E0821B930B28
:10056000541710F0CF96089501970895FC01918DCE
:10057000828D981761F0A28DAE0FBF2FB11D5D96D1
:100580008C91928D9F5F9F73928F90E008958FEF73
:100590009FEF0895FC01918D828D981731F0828D27
:1005A000E80FF11D858D90E008958FEF9FEF08957E
:1005B000FC01918D228D892F90E0805C9F4F821BE2
:1005C00091098F739927089583E892E00E94D802D9
:1005D00021E0892B09F420E0822F089580E293E046
:1005E0000E94D80221E0892B09F420E0822F08958F
:1005F000FC01A48DA80FB92FB11DA35ABF4F2C9198
:10060000848D90E001968F739927848FA689B7898E
:100610002C93A089B1898C91837080648C93938D85
:10062000848D981306C00288F389E02D80818F7D28
:1006300080830895EF92FF920F931F93CF93DF93E0
:10064000EC0181E0888F9B8D8C8D98131AC0E8890E
:10065000F989808185FF15C09FB7F894EE89FF89DD
:100660006083E889F98980818370806480839FBF7B
:1006700081E090E0DF91CF911F910F91FF90EF907B
:100680000895F62E0B8D10E00F5F1F4F0F7311278B
:10069000E02E8C8D8E110CC00FB607FCFACFE889C6
:1006A000F989808185FFF5CFCE010E94F802F1CF54
:1006B000EB8DEC0FFD2FF11DE35AFF4FF0829FB73A
:1006C000F8940B8FEA89FB8980818062CFCFCF932A
:1006D000DF93EC01888D8823B9F0AA89BB89E8896A
:1006E000F9898C9185FD03C0808186FD0DC00FB610
:1006F00007FCF7CF8C9185FFF2CF808185FFEDCF8E
:10070000CE010E94F802E9CFDF91CF91089580E0F9
:1007100090E0892B29F00E94EE0281110E940000D6
:1007200080E090E0892B49F080E090E0892B29F06F
:100730000E94000081110E94000080E090E0892B5F
:1007400049F080E090E0892B29F00E94000081119F
:100750000E94000080E090E0892B29F00E94E402D2
:1007600081110C9400000895FC0101900020E9F72C
:100770003197AF01481B590BBC0180E293E00C9408
:100780007A028F929F92AF92BF92CF92DF92EF92B6
:10079000FF920F931F93CF93DF93CDB7DEB7A1974F
:1007A0000FB6F894DEBF0FBECDBF6C01990FEE08F7
:1007B000FF08F7FE47C06DE280E293E00E941A0353
:1007C0008C0122273327A9012C193D094E095F0905
:1007D00019A2CE0181967C019AE0892E912CA12C40
:1007E000B12CCA01B901A50194010E944309605DC1
:1007F000F70162937F01211531054105510589F704
:1008000090E080E0309719F0CF010E94B403080F08
:10081000191F82E192E00E94B403800F911FA196FC
:100820000FB6F894DEBF0FBECDBFDF91CF911F9101
:100830000F91FF90EF90DF90CF90BF90AF909F907F
:100840008F900895A701960119A28E010F5D1F4F89
:100850008AE0C82ED12CE12CF12CCA01B901A701E4
:1008600096010E944309605DF80162938F01211592
:1008700031054105510589F7309729F0CF010E94D4
:10088000B4038C01C6CF10E000E0C3CF1F920F92DB
:100890000FB60F9211242F933F938F939F93AF9393
:1008A000BF9380917F0290918002A0918102B091CC
:1008B000820230917E0223E0230F2D3758F50196F6
:1008C000A11DB11D20937E0280937F029093800230
:1008D000A0938102B093820280917A0290917B0270
:1008E000A0917C02B0917D020196A11DB11D809363
:1008F0007A0290937B02A0937C02B0937D02BF9119
:10090000AF919F918F913F912F910F900FBE0F90BC
:100910001F90189526E8230F0296A11DB11DD2CF76
:100920001F920F920FB60F9211240BB60F922F93B6
:100930003F934F935F936F937F938F939F93AF9367
:10094000BF93EF93FF9383E892E00E94F802FF9138
:10095000EF91BF91AF919F918F917F916F915F9137
:100960004F913F912F910F900BBE0F900FBE0F90A4
:100970001F9018951F920F920FB60F9211240BB66D
:100980000F922F938F939F93EF93FF93E091930296
:10099000F09194028081E0919902F0919A0282FD97
:1009A0001DC0908180919C028F5F8F7320919D026A
:1009B000821741F0E0919C02F0E0ED57FD4F958FDA
:1009C00080939C02FF91EF919F918F912F910F90B7
:1009D0000BBE0F900FBE0F901F9018958081F2CF25
:1009E0001F920F920FB60F9211240BB60F922F93F6
:1009F0003F934F935F936F937F938F939F93AF93A7
:100A0000BF93EF93FF9380E293E00E94F802FF917F
:100A1000EF91BF91AF919F918F917F916F915F9176
:100A20004F913F912F910F900BBE0F900FBE0F90E3
:100A30001F9018951F920F920FB60F9211240BB6AC
:100A40000F922F938F939F93EF93FF93E091300337
:100A5000F09131038081E0913603F091370382FDFC
:100A60001DC09081809139038F5F8F7320913A036D
:100A7000821741F0E0913903F0E0E05EFC4F958F82
:100A800080933903FF91EF919F918F912F910F9058
:100A90000BBE0F900FBE0F901F9018958081F2CF64
:100AA000CF92DF92EF92FF920F931F93E82FF92FCF
:100AB00005C0015011092109310961F19081962386
:100AC0009417B9F305C0015011092109310911F139
:100AD000908196239413F7CFC12CD12CE12CF12CCB
:100AE0000AC08FEFC81AD80AE80AF80A0C151D05C3
:100AF0002E053F0579F080818623841791F36C2DB4
:100B00007D2D8E2D9F2D1F910F91FF90EF90DF90E7
:100B1000CF90089560E070E080E090E01F910F9129
:100B2000FF90EF90DF90CF900895E3E8F2E013821A
:100B3000128248EE53E060E070E0448355836683A0
:100B4000778384E092E09183808325E331E03587E9
:100B5000248724E331E03787268720E331E0318B97
:100B6000208B21E331E0338B228B22E331E0358B84
:100B7000248B26E331E0378B268B118E128E138E59
:100B8000148EE0E2F3E0138212824483558366837D
:100B900077839183808385EC90E09587848784ECCC
:100BA00090E09787868780EC90E0918B808B81EC3A
:100BB00090E0938B828B82EC90E0958B848B86EC1B
:100BC00090E0978B868B118E128E138E148EEDEB28
:100BD000F3E082E0808384E0818389E0828387E0A0
:100BE000838388E084838AE085830895CF93DF93AD
:100BF00000D01F921F92CDB7DEB7789484B5826083
:100C000084BD84B5816084BD85B5826085BD85B5B0
:100C1000816085BD80916E00816080936E0010922E
:100C200081008091810082608093810080918100A9
:100C3000816080938100809180008160809380003A
:100C40008091B10084608093B1008091B000816098
:100C50008093B00080919100826080939100809198
:100C600091008160809391008091900081608093D9
:100C700090008091A10082608093A1008091A100EA
:100C800081608093A1008091A00081608093A0008A
:100C900080912101826080932101809121018160F6
:100CA00080932101809120018160809320018091B7
:100CB0007A00846080937A0080917A0082608093C9
:100CC0007A0080917A00816080937A0080917A0026
:100CD000806880937A001092C10080E293E00E94C5
:100CE0008A0183E892E00E948A0185E192E00E94F5
:100CF000B40382E192E00E94B40361E08091BD03FD
:100D00000E943D0261E08091BE030E943D0261E0CD
:100D10008091BF030E943D0261E08091C0030E9468
:100D20003D0261E08091C1030E943D0261E080913B
:100D3000C2030E943D0260E086E30E943D0260E043
:100D400086E00E943D020E946E0260936A027093E8
:100D50006B0280936C0290936D02E6E2F2E0649184
:100D6000E0EEF1E08491E82FF0E0EE0FFF1FE45792
:100D7000FE4F8591949100E412E42FE030E0462F7D
:100D80000E945005611571058105910529F06F5F7D
:100D90007F4F8F4F9F4F9F70072E000C880B990B32
:100DA0009B01AC01215E334041095109AEE5B0E041
:100DB0000E94380921EE33E040E050E00E9419091A
:100DC00049015A01F5E28F1A9108A108B1088091F2
:100DD0007B00877F80937B0020E420937C008091C0
:100DE0007A00806480937A0080917A00382F307482
:100DF0003B8386FDF9CF2091780080917900382FD0
:100E0000032E000C440B550B2D563140410951095E
:100E1000AEE5B0E00E9438092FEA31E040E050E052
:100E20000E9419092552310941095109190182E02D
:100E3000281A3108F401E219F309FA83E983BF01A2
:100E4000FF0F880B990B0E94C00A6B017C010E9466
:100E50006E0200916A0210916B0220916C02309137
:100E60006D02601B710B820B930B0E94BE0A20E087
:100E700030E04AE754E40E94160A2B013C010E942C
:100E80006E0260936A0270936B0280936C0290937F
:100E90006D0220E030E040E250E4C701B6010E945C
:100EA000750BA30192010E94750B2091660230918F
:100EB000670240916802509169020E94A5092B01C6
:100EC0003C0120E030E048EC53EC0E94110A87FD21
:100ED00060C020E030E048EC53E4C301B2010E945E
:100EE000700B181634F4412C512C98EC692E93E4B5
:100EF000792E409266025092670260926802709268
:100F0000690289819A810196039708F48DC120E0D6
:100F100030E040EA50E4C701B6010E94750BA3011E
:100F200092010E94A5090E94880A9B018B016139E8
:100F3000714014F000E911E000378EEF180714F447
:100F400000E71EEF780137FF06C0EE24FF24E01A09
:100F5000F10A91E09B83E3E3EE9DC001EF9D900DCC
:100F6000112460E570E00E9474097D836C837090A9
:100F7000C20361E0872D0E943D022C813D81232B1D
:100F800009F449C1EC81FD81EF3FF10549F461E0CD
:100F900043C1412C512C88EC682E83EC782EA9CFCC
:100FA000E72DF0E0EA59FD4FE491E150E23108F01D
:100FB0002CC1F0E08827E052F84F8F4F0C9488093D
:100FC000F20758085E086A087608050982088B0847
:100FD0009408A008AC08B808C908D5080509E108B4
:100FE000ED08F90884B5806884BDFC81F7BD809167
:100FF000C00360E0EF2809F413C1FB8161E0FF2327
:1010000009F40EC160E00E94B10161E08091C1036A
:101010000E94B1018091720281110DC00E946E0286
:1010200060936E0270936F028093700290937102CE
:1010300021E0209372020E946E0240906E02509056
:101040006F026090700270907102641975098609D0
:101050009709603D77408105910538F10E946E0245
:1010600060936E0270936F0280937002909371028E
:1010700086E292E00E94B403C4010E94C10388E3A7
:1010800092E00E94B403C1010E94C10389E492E08E
:101090000E94B40389819A810E94C10388E592E08D
:1010A0000E94B403C8010E94C1030E94870355CE69
:1010B00084B5806284BD2C8128BD99CF8091800049
:1010C0008068809380008C819D81909389008093BB
:1010D00088008DCF80918000806280938000EC81B9
:1010E000FD81F0938B00E0938A0081CF8091800096
:1010F0008860809380002C813D8130938D00209307
:101100008C0075CF8091B00080688093B0003C81E6
:101110003093B3006CCF8091B00080628093B000B8
:101120008C818093B40063CF80919000806880931D
:101130009000EC81FD81F0939900E093980057CFE7
:10114000809190008062809390002C813D8130934B
:101150009B0020939A004BCF8091900088608093F1
:1011600090008C819D8190939D0080939C003FCF47
:101170008091A00080688093A0008091A0008F7B68
:101180008093A000EC81FD81F093A900E093A8007A
:101190002ECF8091A00080628093A0002C813D81A1
:1011A0003093AB002093AA0022CF8091A0008860EA
:1011B0008093A0008C819D819093AD008093AC00C2
:1011C00016CF80912001806880932001EC81FD8101
:1011D000F0932901E09328010ACF809120018062D9
:1011E000809320012C813D8130932B0120932A0193
:1011F000FECE809120018860809320018C819D81AA
:1012000090932D0180932C01F2CEEC81FD81E0388A
:10121000F1050CF0BCCE60E0872D0E94B101E7CE55
:101220000E94B10160E0F2CE10E000E0F12CE12C70
:1012300092CE052E97FB1EF400940E94300957FDB4
:1012400007D00E94430907FC03D04EF40C943009E8
:1012500050954095309521953F4F4F4F5F4F0895E2
:1012600090958095709561957F4F8F4F9F4F089512
:101270000E946509A59F900DB49F900DA49F800DBD
:10128000911D11240895A1E21A2EAA1BBB1BFD017A
:101290000DC0AA1FBB1FEE1FFF1FA217B307E40755
:1012A000F50720F0A21BB30BE40BF50B661F771FAD
:1012B000881F991F1A9469F760957095809590958D
:1012C0009B01AC01BD01CF010895A29FB001B39F66
:1012D000C001A39F700D811D1124911DB29F700D3F
:1012E000811D1124911D089597FB072E16F400947B
:1012F00007D077FD09D00E94900907FC05D03EF485
:10130000909581959F4F0895709561957F4F0895B1
:10131000EE0FFF1F881F8BBF0790F691E02D1994E9
:10132000AA1BBB1B51E107C0AA1FBB1FA617B7070B
:1013300010F0A61BB70B881F991F5A95A9F7809527
:101340009095BC01CD0108955058BB27AA270E9453
:10135000BC090C94360B0E94280B38F00E942F0B0E
:1013600020F039F49F3F19F426F40C94250B0EF469
:10137000E095E7FB0C941F0BE92F0E94470B58F3F5
:10138000BA17620773078407950720F079F4A6F56A
:101390000C94690B0EF4E0950B2EBA2FA02D0B01C7
:1013A000B90190010C01CA01A0011124FF27591BAA
:1013B00099F0593F50F4503E68F11A16F040A22FB0
:1013C000232F342F4427585FF3CF46953795279521
:1013D000A795F0405395C9F77EF41F16BA0B620B20
:1013E000730B840BBAF09150A1F0FF0FBB1F661F67
:1013F000771F881FC2F70EC0BA0F621F731F841FAA
:1014000048F4879577956795B795F7959E3F08F0CF
:10141000B0CF9395880F08F09927EE0F9795879591
:1014200008950E94FB0A08F481E008950E942A0AA8
:101430000C94360B0E942F0B58F00E94280B40F0A2
:1014400029F45F3F29F00C941F0B51110C946A0B87
:101450000C94250B0E94470B68F39923B1F3552395
:1014600091F3951B550BBB27AA27621773078407B7
:1014700038F09F5F5F4F220F331F441FAA1FA9F34D
:1014800035D00E2E3AF0E0E832D091505040E6953B
:10149000001CCAF72BD0FE2F29D0660F771F881F9C
:1014A000BB1F261737074807AB07B0E809F0BB0B8F
:1014B000802DBF01FF2793585F4F3AF09E3F5105A3
:1014C00078F00C941F0B0C946A0B5F3FE4F3983E8A
:1014D000D4F3869577956795B795F7959F5FC9F78C
:1014E000880F911D9695879597F90895E1E0660F0D
:1014F000771F881FBB1F621773078407BA0720F086
:10150000621B730B840BBA0BEE1F88F7E0950895EE
:101510000E948F0A6894B1110C946A0B08950E947E
:101520004F0B88F09F5798F0B92F9927B751B0F01B
:10153000E1F0660F771F881F991F1AF0BA95C9F757
:1015400014C0B13091F00E94690BB1E008950C9481
:10155000690B672F782F8827B85F39F0B93FCCF334
:10156000869577956795B395D9F73EF490958095D4
:10157000709561957F4F8F4F9F4F0895E89409C0F4
:1015800097FB3EF490958095709561957F4F8F4FB6
:101590009F4F9923A9F0F92F96E9BB279395F695CC
:1015A000879577956795B795F111F8CFFAF4BB0F4A
:1015B00011F460FF1BC06F5F7F4F8F4F9F4F16C0AE
:1015C000882311F096E911C0772321F09EE8872F38
:1015D000762F05C0662371F096E8862F70E060E0F4
:1015E0002AF09A95660F771F881FDAF7880F96956D
:1015F000879597F90895990F0008550FAA0BE0E811
:10160000FEEF16161706E807F907C0F012161306C4
:10161000E407F50798F0621B730B840B950B39F404
:101620000A2661F0232B242B252B21F408950A266A
:1016300009F4A140A6958FEF811D811D089597F9AA
:101640009F6780E870E060E008959FEF80EC089568
:1016500000240A9416161706180609060895002491
:101660000A9412161306140605060895092E03940B
:10167000000C11F4882352F0BB0F40F4BF2B11F47F
:1016800060FF04C06F5F7F4F8F4F9F4F089557FDDE
:101690009058440F551F59F05F3F71F04795880FE0
:1016A00097FB991F61F09F3F79F087950895121677
:1016B00013061406551FF2CF4695F1DF08C0161623
:1016C00017061806991FF1CF8695710561050894D4
:1016D0000895E894BB2766277727CB0197F90895EB
:1016E0000E94FB0A08F48FEF08950E94880B0C9467
:1016F000360B0E94280B38F00E942F0B20F0952308
:1017000011F00C941F0B0C94250B11240C946A0BF4
:101710000E94470B70F3959FC1F3950F50E0551F42
:10172000629FF001729FBB27F00DB11D639FAA2736
:10173000F00DB11DAA1F649F6627B00DA11D661F85
:10174000829F2227B00DA11D621F739FB00DA11DA6
:10175000621F839FA00D611D221F749F3327A00D60
:10176000611D231F849F600D211D822F762F6A2FFC
:1017700011249F5750409AF0F1F088234AF0EE0F61
:10178000FF1FBB1F661F771F881F91505040A9F78E
:101790009E3F510580F00C941F0B0C946A0B5F3F29
:1017A000E4F3983ED4F3869577956795B795F795CA
:1017B000E7959F5FC1F7FE2B880F911D9695879542
:0817C00097F90895F894FFCF9A
:1017C800000000001A037A02A7026703D802B602D3
:1017D800CA020D0A00426F61742052756464657212
:1017E8002054657374000A527564646572206465D8
:1017F80073697265643A200052756464657220707A
:10180800726573656E743A2000527564646572205F
:101818006572726F723A2000527564646572205066
:06182800574D3A200000BC
:00000001FF
