:100000000C9457010C9488010C9488010C9488017D
:100010000C9488010C9488010C9488010C9488013C
:100020000C9488010C9488010C9488010C9488012C
:100030000C9488010C9488010C9488010C9488011C
:100040000C9488010C9488010C9488010C9488010C
:100050000C9488010C9488010C9488010C94190468
:100060000C9488010C948D040C9463040C94880106
:100070000C9488010C9488010C9488010C948801DC
:100080000C9488010C9488010C9488010C948801CC
:100090000C9488010C9488010C9488010C948801BC
:1000A0000C9488010C9488010C9488010C948801AC
:1000B0000C9488010C9488010C9488010C9488019C
:1000C0000C9488010C9488010C9488010C9488018C
:1000D0000C9488010C9488010C9488010C9488017C
:1000E0000C9488010C94F0010C94A3020C94570812
:1000F0000C94EA010C9453020C94BC080C947B08F9
:100100000C94D1010C9448080C94C6080C946B080C
:100110000C9485080C940C020C9473080C94B2088F
:100120000C94E9020C9406020C94A8080C9408059F
:100130000C94D9010C94FE010C9402020C949908C1
:100140000C94E6010C948F020C9410020C94E001C4
:100150000C9480020C944D080C9461080C94BD071B
:100160000C94B1020C94BF010C948F080C94D0082D
:100170000C94BA010C94F4010C94DA080C94F80174
:100180000C94DD010C9436030C94D5010000200082
:100190002300260029002C002F003200000100005F
:1001A00003010601090100002100240027002A00A4
:1001B0002D003000330001010000040107010A0195
:1001C00000002200250028002B002E003100340002
:1001D00002010000050108010B01050505050705E1
:1001E00008080808020202020A0A080804040404B3
:1001F00001010101010101010303030303030303DF
:10020000040707070C0C0C0C0C0C0C0C020202026D
:1002100006060606060606060B0B0B0B0B0B0B0B56
:100220000102102020080810204010204080020108
:1002300002010804020101020408102040808040ED
:1002400020100804020180040201804020100804EC
:10025000020108040201010204081020408001028A
:1002600004081020408000000A0B02090C0D0E0843
:10027000070304010000000000000000000000006F
:10028000000000000000000000000000000000006E
:10029000000012111000000000000000000000002B
:1002A000000000000000000000000000080511240C
:1002B0001FBECFEFD1E2DEBFCDBF00E00CBF12E02A
:1002C000A0E0B2E0E4E7F7E100E00BBF02C0079076
:1002D0000D92AE35B107D9F723E0AEE5B2E001C02B
:1002E0001D92A034B207E1F711E0C7E5D1E000E0CC
:1002F00006C021970109802FFE010E945E09C635C4
:10030000D10780E00807A9F70E944B050C94B80BB1
:100310000C940000282F30E0F901EA59FD4F949128
:10032000F901E05EFD4F449126523E4FF9012491C0
:10033000222309F435C0992311F191509231F8F438
:10034000E92FF0E08827E855FE4F8F4F0C945E09A7
:10035000D901DD01BA01D101D501BF01E001E601FA
:10036000EA01F001F401F801FE010202BF010602F8
:100370000C021002809180008F7780938000E22F22
:10038000F0E0EE0FFF1FE054FE4FA591B4918FB740
:10039000F894EC91611148C040954E234C938FBF67
:1003A0000895809180008F7DE8CF80918000877FC5
:1003B000E4CF84B58F7784BDE2CF84B58F7DFBCF4A
:1003C0008091B0008F778093B000D9CF8091B0003A
:1003D0008F7DF9CF809190008F7780939000CFCF61
:1003E000809190008F7DF9CF80919000877FF5CF2D
:1003F0008091A0008F778093A000C1CF8091A00052
:100400008F7DF9CF8091A000877FF5CF809120016B
:100410008F7780932001B3CF809120018F7DF9CF1A
:1004200080912001877FF5CF4E2BB8CFCF93DF93FC
:1004300090E0FC01E05EFD4F249186529E4FFC014E
:1004400084918823D1F090E0880F991FFC01EA5530
:10045000FE4FA591B491FC01E054FE4FC591D4919B
:1004600061110EC09FB7F8948C91E22FE0958E2316
:100470008C932881E223E8839FBFDF91CF91089579
:100480008FB7F894EC91E22BEC938FBFF6CF2FB798
:10049000F8946091950270919602809197029091E4
:1004A00098022FBF0895AF92BF92CF92DF92EF9242
:1004B000FF920F931F93CF93DF936C017B018B010E
:1004C000040F151FEB015E01AE18BF08C017D1075E
:1004D00059F06991D601ED91FC910190F081E02DE8
:1004E000C6011995892B79F7C501DF91CF911F912D
:1004F0000F91FF90EF90DF90CF90BF90AF90089555
:10050000FC01538D448D252F30E0842F90E0821B19
:10051000930B541710F0CF96089501970895FC019E
:10052000918D828D981761F0A28DAE0FBF2FB11DF6
:100530005D968C91928D9F5F9F73928F90E008954E
:100540008FEF9FEF0895FC01918D828D981731F008
:10055000828DE80FF11D858D90E008958FEF9FEF5C
:100560000895FC01918D228D892F90E0805C9F4F32
:10057000821B91098F739927089589E992E00E945F
:10058000B10221E0892B09F420E0822F0895FC01BB
:10059000A48DA80FB92FB11DA35ABF4F2C91848DE4
:1005A00090E001968F739927848FA689B7892C9341
:1005B000A089B1898C91837080648C93938D848D94
:1005C000981306C00288F389E02D80818F7D808397
:1005D0000895EF92FF920F931F93CF93DF93EC0157
:1005E00081E0888F9B8D8C8D98131AC0E889F989DA
:1005F000808185FF15C09FB7F894EE89FF896083DD
:10060000E889F98980818370806480839FBF81E05D
:1006100090E0DF91CF911F910F91FF90EF9008959F
:10062000F62E0B8D10E00F5F1F4F0F731127E02E7A
:100630008C8D8E110CC00FB607FCFACFE889F989B2
:10064000808185FFF5CFCE010E94C702F1CFEB8DEF
:10065000EC0FFD2FF11DE35AFF4FF0829FB7F89486
:100660000B8FEA89FB8980818062CFCFCF93DF93A4
:10067000EC01888D8823B9F0AA89BB89E889F989BA
:100680008C9185FD03C0808186FD0DC00FB607FCEF
:10069000F7CF8C9185FFF2CF808185FFEDCFCE0122
:1006A0000E94C702E9CFDF91CF91089580E090E0EA
:1006B000892B29F00E94BD0281110E94000080E078
:1006C00090E0892B49F080E090E0892B29F00E948E
:1006D000000081110E94000080E090E0892B49F029
:1006E00080E090E0892B29F00E94000081110E9497
:1006F000000080E090E0892B49F080E090E0892BB9
:1007000029F00E94000081110C9400000895FC0162
:1007100001900020E9F73197AF01481B590BBC014C
:1007200089E992E00C9453028F929F92AF92BF920C
:10073000CF92DF92EF92FF920F931F93CF93DF93AD
:10074000CDB7DEB7A1970FB6F894DEBF0FBECDBF11
:100750006C01990FEE08FF08F7FE47C06DE289E9CA
:1007600092E00E94E9028C0122273327A9012C196B
:100770003D094E095F0919A2CE0181967C019AE0DC
:10078000892E912CA12CB12CCA01B901A50194018B
:100790000E941909605DF70162937F0121153105FF
:1007A0004105510589F790E080E0309719F0CF01BD
:1007B0000E948703080F191F82E192E00E948703BD
:1007C000800F911FA1960FB6F894DEBF0FBECDBF6C
:1007D000DF91CF911F910F91FF90EF90DF90CF901D
:1007E000BF90AF909F908F900895A701960119A296
:1007F0008E010F5D1F4F8AE0C82ED12CE12CF12C09
:10080000CA01B901A70196010E941909605DF801AA
:1008100062938F01211531054105510589F7309704
:1008200029F0CF010E9487038C01C6CF10E000E0C1
:10083000C3CF1F920F920FB60F9211242F933F93A5
:100840008F939F93AF93BF9380919502909196025F
:10085000A0919702B09198023091940223E0230F67
:100860002D3758F50196A11DB11D20939402809358
:10087000950290939602A0939702B093980280916C
:10088000900290919102A0919202B09193020196F0
:10089000A11DB11D8093900290939102A0939202AA
:1008A000B0939302BF91AF919F918F913F912F9100
:1008B0000F900FBE0F901F90189526E8230F0296F9
:1008C000A11DB11DD2CF1F920F920FB60F9211240E
:1008D0000BB60F922F933F934F935F936F937F933A
:1008E0008F939F93AF93BF93EF93FF9389E992E028
:1008F0000E94C702FF91EF91BF91AF919F918F919D
:100900007F916F915F914F913F912F910F900BBE0F
:100910000F900FBE0F901F9018951F920F920FB659
:100920000F9211240BB60F922F938F939F93EF93F7
:10093000FF93E091A902F091AA028081E091AF02B9
:10094000F091B00282FD1DC090818091B2028F5F54
:100950008F732091B302821741F0E091B202F0E070
:10096000E756FD4F958F8093B202FF91EF919F91D3
:100970008F912F910F900BBE0F900FBE0F901F9075
:1009800018958081F2CFCF92DF92EF92FF920F9372
:100990001F93E82FF92F05C00150110921093109D2
:1009A00061F1908196239417B9F305C001501109A4
:1009B0002109310911F1908196239413F7CFC12CAD
:1009C000D12CE12CF12C0AC08FEFC81AD80AE80A02
:1009D000F80A0C151D052E053F0579F08081862348
:1009E000841791F36C2D7D2D8E2D9F2D1F910F91CE
:1009F000FF90EF90DF90CF90089560E070E080E08E
:100A000090E01F910F91FF90EF90DF90CF900895AD
:100A1000E9E9F2E01382128288EE93E0A0E0B0E010
:100A200084839583A683B78384E092E09183808357
:100A300085EC90E09587848784EC90E097878687A3
:100A400080EC90E0918B808B81EC90E0938B828B9B
:100A500082EC90E0958B848B86EC90E0978B868B74
:100A6000118E128E138E148EE6E3F3E082E0808303
:100A700084E0818389E0828386E0838386E38483C4
:100A800087E0858388E086838AE087838CE080879F
:100A900087E381870895789484B5826084BD84B5A6
:100AA000816084BD85B5826085BD85B5816085BD69
:100AB00080916E00816080936E0010928100809121
:100AC00081008260809381008091810081608093A9
:100AD0008100809180008160809380008091B100CE
:100AE00084608093B1008091B00081608093B000F9
:100AF000809191008260809391008091910081604B
:100B0000809391008091900081608093900080910B
:100B1000A10082608093A1008091A10081608093F8
:100B2000A1008091A00081608093A00080912101AC
:100B30008260809321018091210181608093210155
:100B40008091200181608093200180917A008460EF
:100B500080937A0080917A00826080937A008091FD
:100B60007A00816080937A0080917A008068809317
:100B70007A001092C100E091A902F091AA0282E0ED
:100B80008083E091A502F091A6021082E091A70275
:100B9000F091A80280E180831092B102E091AD0251
:100BA000F091AE0286E08083E091AB02F091AC025E
:100BB000808180618083E091AB02F091AC02808102
:100BC00088608083E091AB02F091AC028081806804
:100BD0008083E091AB02F091AC0280818F7D8083B5
:100BE00085E192E00E94870382E192E00E94870300
:100BF00061E0809136030E94160261E08091370324
:100C00000E94160261E0809138030E94160260E0A3
:100C1000809139030E94160260E080913A030E949D
:100C2000160261E080913B030E94160261E0809110
:100C30003C030E94160261E080913D030E9416026F
:100C400060E080913E030E94160260E080913F03C5
:100C50000E94160260E089E30E94160260E083E0D1
:100C60000E9416020E94470260936E0270936F0208
:100C70008093700290937102DD24D39430E5232E8B
:100C8000312CE3E2F2E06491EDEDF1E08491E82FA4
:100C9000F0E0EE0FFF1FE457FE4F8591949100E4C2
:100CA00012E42FE030E0462F0E94C3046115710565
:100CB0008105910529F06F5F7F4F8F4F9F4F9F7088
:100CC000072E000C880B990B9B01AC01215E334071
:100CD00041095109AEE5B0E00E940E0921EE33E072
:100CE00040E050E00E94EF0849015A01F5E28F1AF6
:100CF0009108A108B10890927F0280927E028091B3
:100D00007B00877F80937B0023E420937C0080918D
:100D10007A00806480937A0080917A00982F907492
:100D2000C92E86FDF9CF8091780000917900102FAF
:100D3000082F9801012E000C440B550B2D56314005
:100D400041095109AEE5B0E00E940E092FEA31E0F9
:100D500040E050E00E94EF08255231094109510955
:100D6000E90122978091620281110CC00E94470222
:100D700060935E0270935F028093600290936102C1
:100D8000D09262020E94470240905E0250905F0241
:100D90006090600270906102641975098609970974
:100DA000683B7B4081059105C0F00E94470260933B
:100DB0005E0270935F02809360029093610286E20C
:100DC00092E00E948703C8010E94940383E392E0AB
:100DD0000E948703CE010E9494037401EC1AFD0A5D
:100DE000B7010F2C000C880B990B0E94960A2B015F
:100DF0003C010E94470200916E0210916F02209107
:100E0000700230917102601B710B820B930B0E9478
:100E1000940A20E030E04AE754E40E94EC094B01D8
:100E20005C010E94470260936E0270936F02809390
:100E300070029093710220E030E040E250E4C30180
:100E4000B2010E944B0BA50194010E944B0B209113
:100E50006A0230916B0240916C0250916D020E94C7
:100E60007B094B015C0120E030E048EC53EC0E9430
:100E7000E70987FD59C020E030E048EC53E4C501A4
:100E8000B4010E94460B181634F4812C912C98EC76
:100E9000A92E93E4B92E80926A0290926B02A092DE
:100EA0006C02B0926D02C7010196039708F48FC1DE
:100EB00020E030E040EA50E4C301B2010E944B0B55
:100EC000A50194010E947B090E945E0A9B018B018F
:100ED0006139714014F000E911E000378EEF180716
:100EE00014F400E71EEFAA24BB24A01AB10A1216BC
:100EF00013060CF471C1850123E3209FC001219FDB
:100F0000900D1124B1010E944A09EB0190903D031C
:100F100061E0892D0E941602209709F44FC1CF3F4E
:100F2000D10549F461E04BC1812C912C88ECA82EAD
:100F300083ECB82EB0CFE92DF0E0EA59FD4FE491F3
:100F4000E150E23108F036C1F0E08827E555F84F6E
:100F50008F4F0C945E09BD0748084D08570861087B
:100F6000DA086B0873087B0885088F089908A808B9
:100F7000B208DA08BC08C608D00884B5806884BD09
:100F8000C7BD80913B0360E0012B09F41CC161E007
:100F9000CC2009F418C160E00E948A0161E08091D0
:100FA0003C030E948A018091760281110CC00E944C
:100FB000470260937202709373028093740290935D
:100FC0007502D09276020E9447020091720210913F
:100FD00073022091740230917502601B710B820BB9
:100FE000930B683B7B4081059105C0F00E9447024E
:100FF00060937202709373028093740290937502EF
:1010000082E492E00E948703C7010E94940381E575
:1010100092E00E948703C5010E9494038091880298
:1010200081110CC00E944702609384027093850274
:101030008093860290938702D09288020E94470292
:1010400000918402109185022091860230918702DE
:10105000601B710B820B930B683B7B4081059105F4
:10106000A0F00E94470260938402709385028093EF
:1010700086029093870283E392E00E948703809127
:101080007E0290917F020E9494030E945603F9CD44
:1010900084B5806284BDC8BD74CF809180008068B3
:1010A00080938000D0938900C09388006ACF80919C
:1010B0008000806280938000D0938B00C0938A0070
:1010C00060CF80918000886080938000D0938D00F5
:1010D000C0938C0056CF8091B00080688093B000A0
:1010E000C093B3004ECF8091B00080628093B00077
:1010F000C093B40046CF80919000806880939000A8
:10110000D0939900C09398003CCF8091900080626A
:1011100080939000D0939B00C0939A0032CF80912F
:101120009000886080939000D0939D00C0939C00B5
:1011300028CF8091A00080688093A0008091A000BB
:101140008F7B8093A000D093A900C093A80019CFF3
:101150008091A00080628093A000D093AB00C093E8
:10116000AA000FCF8091A00088608093A000D09348
:10117000AD00C093AC0005CF8091200180688093C2
:101180002001D0932901C0932801FBCE809120013A
:10119000806280932001D0932B01C0932A01F1CE6D
:1011A00080912001886080932001D0932D01C0930D
:1011B0002C01E7CEC038D1050CF0B4CE60E0892D0B
:1011C0000E948A01DECE0E948A0160E0E8CEB12C46
:1011D000A12C10E000E090CECC24C3948DCE052E3F
:1011E00097FB1EF400940E94060957FD07D00E9449
:1011F000190907FC03D04EF40C940609509540954C
:10120000309521953F4F4F4F5F4F089590958095B2
:10121000709561957F4F8F4F9F4F08950E943B09B6
:10122000A59F900DB49F900DA49F800D911D11243A
:101230000895A1E21A2EAA1BBB1BFD010DC0AA1F17
:10124000BB1FEE1FFF1FA217B307E407F50720F02F
:10125000A21BB30BE40BF50B661F771F881F991FAA
:101260001A9469F760957095809590959B01AC01F3
:10127000BD01CF010895A29FB001B39FC001A39FFC
:10128000700D811D1124911DB29F700D811D1124BF
:10129000911D089597FB072E16F4009407D077FD53
:1012A00009D00E94660907FC05D03EF4909581950F
:1012B0009F4F0895709561957F4F0895EE0FFF1F22
:1012C000881F8BBF0790F691E02D1994AA1BBB1BBA
:1012D00051E107C0AA1FBB1FA617B70710F0A61B36
:1012E000B70B881F991F5A95A9F780959095BC0157
:1012F000CD0108955058BB27AA270E9492090C944B
:101300000C0B0E94FE0A38F00E94050B20F039F405
:101310009F3F19F426F40C94FB0A0EF4E095E7FBCA
:101320000C94F50AE92F0E941D0B58F3BA176207B7
:1013300073078407950720F079F4A6F50C943F0B0A
:101340000EF4E0950B2EBA2FA02D0B01B9019001E0
:101350000C01CA01A0011124FF27591B99F0593F24
:1013600050F4503E68F11A16F040A22F232F342F6C
:101370004427585FF3CF469537952795A795F040BA
:101380005395C9F77EF41F16BA0B620B730B840BCF
:10139000BAF09150A1F0FF0FBB1F661F771F881F87
:1013A000C2F70EC0BA0F621F731F841F48F48795DF
:1013B00077956795B795F7959E3F08F0B0CF9395D1
:1013C000880F08F09927EE0F9795879508950E944A
:1013D000D10A08F481E008950E94000A0C940C0BD5
:1013E0000E94050B58F00E94FE0A40F029F45F3F6E
:1013F00029F00C94F50A51110C94400B0C94FB0A43
:101400000E941D0B68F39923B1F3552391F3951BAB
:10141000550BBB27AA2762177307840738F09F5F15
:101420005F4F220F331F441FAA1FA9F335D00E2E82
:101430003AF0E0E832D091505040E695001CCAF7EF
:101440002BD0FE2F29D0660F771F881FBB1F2617B2
:1014500037074807AB07B0E809F0BB0B802DBF0189
:10146000FF2793585F4F3AF09E3F510578F00C9458
:10147000F50A0C94400B5F3FE4F3983ED4F3869555
:1014800077956795B795F7959F5FC9F7880F911D79
:101490009695879597F90895E1E0660F771F881F65
:1014A000BB1F621773078407BA0720F0621B730B18
:1014B000840BBA0BEE1F88F7E09508950E94650A29
:1014C0006894B1110C94400B08950E94250B88F08C
:1014D0009F5798F0B92F9927B751B0F0E1F0660FF8
:1014E000771F881F991F1AF0BA95C9F714C0B13039
:1014F00091F00E943F0BB1E008950C943F0B672FD1
:10150000782F8827B85F39F0B93FCCF38695779567
:101510006795B395D9F73EF4909580957095619550
:101520007F4F8F4F9F4F0895E89409C097FB3EF47B
:1015300090958095709561957F4F8F4F9F4F992320
:10154000A9F0F92F96E9BB279395F695879577959E
:101550006795B795F111F8CFFAF4BB0F11F460FF5E
:101560001BC06F5F7F4F8F4F9F4F16C0882311F0B6
:1015700096E911C0772321F09EE8872F762F05C0CA
:10158000662371F096E8862F70E060E02AF09A9565
:10159000660F771F881FDAF7880F9695879597F95A
:1015A0000895990F0008550FAA0BE0E8FEEF1616F4
:1015B0001706E807F907C0F012161306E407F50747
:1015C00098F0621B730B840B950B39F40A2661F0BB
:1015D000232B242B252B21F408950A2609F4A1405E
:1015E000A6958FEF811D811D089597F99F6780E86B
:1015F00070E060E008959FEF80EC089500240A9465
:101600001616170618060906089500240A941216DD
:101610001306140605060895092E0394000C11F410
:10162000882352F0BB0F40F4BF2B11F460FF04C0BD
:101630006F5F7F4F8F4F9F4F089557FD9058440F16
:10164000551F59F05F3F71F04795880F97FB991F21
:1016500061F09F3F79F087950895121613061406DE
:10166000551FF2CF4695F1DF08C01616170618066B
:10167000991FF1CF86957105610508940895E89446
:10168000BB2766277727CB0197F908950E94D10AD7
:1016900008F48FEF08950E945E0B0C940C0B0E94CF
:1016A000FE0A38F00E94050B20F0952311F00C94EF
:1016B000F50A0C94FB0A11240C94400B0E941D0B9C
:1016C00070F3959FC1F3950F50E0551F629FF00195
:1016D000729FBB27F00DB11D639FAA27F00DB11DAE
:1016E000AA1F649F6627B00DA11D661F829F222737
:1016F000B00DA11D621F739FB00DA11D621F839FBE
:10170000A00D611D221F749F3327A00D611D231F93
:10171000849F600D211D822F762F6A2F11249F57E1
:1017200050409AF0F1F088234AF0EE0FFF1FBB1FE4
:10173000661F771F881F91505040A9F79E3F5105A3
:1017400080F00C94F50A0C94400B5F3FE4F3983E54
:10175000D4F3869577956795B795F795E7959F5F4D
:10176000C1F7FE2B880F911D9695879597F90895DF
:04177000F894FFCF1B
:1017740000000000E902530280023603B1028F0226
:10178400A3020D0A00426F6174205275646465728D
:101794002054657374005275646465722041444337
:1017A4003A200052756464657220616E676C653A14
:1017B4002000527564646572206572726F723A20FB
:0E17C400005275646465722050574D3A200043
:00000001FF
