:100000000C9457010C9488010C9488010C9488017D
:100010000C9488010C9488010C9488010C9488013C
:100020000C9488010C9488010C9488010C9488012C
:100030000C9488010C9488010C9488010C9488011C
:100040000C9488010C9488010C9488010C9488010C
:100050000C9488010C9488010C9488010C947C0504
:100060000C9488010C9450060C9426060C9488017C
:100070000C9488010C9488010C9488010C948801DC
:100080000C9488010C9488010C9488010C948801CC
:100090000C9488010C9488010C9488010C948801BC
:1000A0000C9488010C9488010C9488010C948801AC
:1000B0000C9488010C9488010C9488010C9488019C
:1000C0000C9488010C9488010C9488010C9488018C
:1000D0000C9488010C9488010C94F0050C94C605CE
:1000E0000C9488010C9417020C940D020C9440039C
:1000F0000C94EB020C94E1020C94CB060C94B3022A
:100100000C94BD020C942D020C94C6030C948A032B
:100110000C94D9020C94F8010C9429020C9400025E
:100120000C94E8030C942C030C94C7020C94070263
:100130000C9411020C94B7030C9404020C94E1018A
:100140000C941F020C94AE020C9422030C94D10266
:100150000C94E6010C94F5020C9437020C94A60260
:100160000C942A040C9477040C9418030C940E033A
:100170000C9433020C9436030C94DA030C94FF02B3
:100180000C9425020C94FC010C941B02000021002D
:10019000240027002A002D00300033000101000058
:1001A000040107010A0100002200250028002B009D
:1001B0002E003100340002010000050108010B018E
:1001C00000000A0B02090C0D0E08070304010000D1
:1001D000000000000000000000000000000000001F
:1001E00000000000000000000000000012111000DC
:1001F00000000000000000000000000000000000FF
:10020000000000000000000020002300260029005C
:100210002C002F003200000100000301060109013B
:1002200005050505070508080808020202020A0A72
:100230000808040404040101010101010101030390
:10024000030303030303040707070C0C0C0C0C0C3B
:100250000C0C0202020206060606060606060B0B38
:100260000B0B0B0B0B0B0102102020080810204079
:10027000102040800201020108040201010204086A
:1002800010204080804020100804020180040201F8
:100290008040201008040201080402010102040841
:1002A000102040800102040810204080CB06112459
:1002B0001FBECFEFD1E2DEBFCDBF00E00CBF12E02A
:1002C000A0E0B2E0E0EEF9E100E00BBF02C0079071
:1002D0000D92AC37B107D9F723E0ACE7B2E001C02B
:1002E0001D92A33FB207E1F711E0C7E5D1E000E0BE
:1002F00006C021970109802FFE010E94940AC6358D
:10030000D10780E00807A9F70E942C070C94EE0C97
:100310000C940000FC01A089B18982E08C93A48533
:10032000B5851C92A685B78580E18C93108EA48933
:10033000B58986E08C93A289B3898C9180618C9376
:10034000A289B3898C9188608C93A289B3898C919E
:1003500080688C930288F389E02D80818F7D808373
:100360000895282F30E0F901E054FE4F9491F901EF
:10037000EA59FD4F4491205E3D4FF901249122231B
:1003800009F435C0992311F191509231F8F4E92F15
:10039000F0E08827E153FE4F8F4F0C94940A00023F
:1003A0000402E101F801FC01E60107020D0211025D
:1003B00017021B021F0225022902E6012D02330249
:1003C0003702809180008F7780938000E22FF0E0E9
:1003D000EE0FFF1FEA55FE4FA591B4918FB7F89429
:1003E000EC91611148C040954E234C938FBF089506
:1003F000809180008F7DE8CF80918000877FE4CF5F
:1004000084B58F7784BDE2CF84B58F7DFBCF80919B
:10041000B0008F778093B000D9CF8091B0008F7DEE
:10042000F9CF809190008F7780939000CFCF80910B
:1004300090008F7DF9CF80919000877FF5CF8091DC
:10044000A0008F778093A000C1CF8091A0008F7D06
:10045000F9CF8091A000877FF5CF809120018F7721
:1004600080932001B3CF809120018F7DF9CF8091BF
:100470002001877FF5CF4E2BB8CFCF93DF9390E04D
:10048000FC01EA59FD4F2491805E9D4FFC0184914F
:100490008823D1F090E0880F991FFC01E457FE4FAC
:1004A000A591B491FC01EA55FE4FC591D49161111B
:1004B0000EC09FB7F8948C91E22FE0958E238C9319
:1004C0002881E223E8839FBFDF91CF9108958FB702
:1004D000F894EC91E22BEC938FBFF6CF1F93CF9360
:1004E000DF93182FEB0161E00E943D02209739F461
:1004F00060E0812FDF91CF911F910C94B101CF3F2C
:10050000D10511F461E0F5CFE12FF0E0E054FE4FAA
:10051000E491E150E23108F0B3C0F0E08827EC56F6
:10052000FD4F8F4F0C94940AA602AE02B302BD0297
:10053000C7024003D102D902E102EB02F502FF0239
:100540000E031803400322032C03360384B580688E
:1005500084BDC7BDDF91CF911F91089584B580629E
:1005600084BDC8BDF7CF80918000806880938000F3
:10057000D0938900C0938800EDCF80918000806285
:1005800080938000D0938B00C0938A00E3CF80914A
:100590008000886080938000D0938D00C0938C0091
:1005A000D9CF8091B00080688093B000C093B30031
:1005B000D1CF8091B00080628093B000C093B4002E
:1005C000C9CF80919000806880939000D09399006B
:1005D000C0939800BFCF809190008062809390007C
:1005E000D0939B00C0939A00B5CF80919000886013
:1005F00080939000D0939D00C0939C00ABCF8091DE
:10060000A00080688093A0008091A0008F7B8093E1
:10061000A000D093A900C093A8009CCF8091A00017
:1006200080628093A000D093AB00C093AA0092CFC9
:100630008091A00088608093A000D093AD00C0930B
:10064000AC0088CF80912001806880932001D093F6
:100650002901C09328017ECF809120018062809380
:100660002001D0932B01C0932A0174CF80912001E7
:10067000886080932001D0932D01C0932C016ACF14
:10068000C038D1050CF03ECF33CF1F93CF93DF930B
:10069000EC0110E097FF04C0D195C195D10911E09C
:1006A0009E01C13981E0D80714F020E931E043E32D
:1006B000429FC001439F900D112460E570E00E94AD
:1006C000800A8091EF030E946E0260E08091ED034A
:1006D000CD2B81F08091ED0361E0112359F060E0B2
:1006E0000E94B10161E08091EE03DF91CF911F91F3
:1006F0000C94B1010E94B10160E0F5CF2FB7F894DE
:100700006091AF027091B0028091B1029091B202FB
:100710002FBF0895AF92BF92CF92DF92EF92FF92D8
:100720000F931F93CF93DF936C017B018B01040F19
:10073000151FEB015E01AE18BF08C017D10759F0B5
:100740006991D601ED91FC910190F081E02DC601F7
:100750001995892B79F7C501DF91CF911F910F91E1
:10076000FF90EF90DF90CF90BF90AF900895FC0185
:10077000538D448D252F30E0842F90E0821B930B06
:10078000541710F0CF96089501970895FC01918DAC
:10079000828D981761F0A28DAE0FBF2FB11D5D96AF
:1007A0008C91928D9F5F9F73928F90E008958FEF51
:1007B0009FEF0895FC01918D828D981731F0828D05
:1007C000E80FF11D858D90E008958FEF9FEF08955C
:1007D000FC01918D228D892F90E0805C9F4F821BC0
:1007E00091098F739927089583EB92E00E94E803A3
:1007F00021E0892B09F420E0822F089580E593E021
:100800000E94E80321E0892B09F420E0822F08955B
:10081000FC01A48DA80FB92FB11DA35ABF4F2C9175
:10082000848D90E001968F739927848FA689B7896C
:100830002C93A089B1898C91837080648C93938D63
:10084000848D981306C00288F389E02D80818F7D06
:1008500080830895EF92FF920F931F93CF93DF93BE
:10086000EC0181E0888F9B8D8C8D98131AC0E889EC
:10087000F989808185FF15C09FB7F894EE89FF89BB
:100880006083E889F98980818370806480839FBF59
:1008900081E090E0DF91CF911F910F91FF90EF9059
:1008A0000895F62E0B8D10E00F5F1F4F0F73112769
:1008B000E02E8C8D8E110CC00FB607FCFACFE889A4
:1008C000F989808185FFF5CFCE010E940804F1CF20
:1008D000EB8DEC0FFD2FF11DE35AFF4FF0829FB718
:1008E000F8940B8FEA89FB8980818062CFCFCF9308
:1008F000DF93EC01888D8823B9F0AA89BB89E88948
:10090000F9898C9185FD03C0808186FD0DC00FB6ED
:1009100007FCF7CF8C9185FFF2CF808185FFEDCF6B
:10092000CE010E940804E9CFDF91CF91089580E0C5
:1009300090E0892B29F00E94FE0381110E940000A3
:1009400080E090E0892B49F080E090E0892B29F04D
:100950000E94000081110E94000080E090E0892B3D
:1009600049F080E090E0892B29F00E94000081117D
:100970000E94000080E090E0892B29F00E94F4039F
:1009800081110C9400000895FC0101900020E9F70A
:100990003197AF01481B590BBC0180E593E00C94E3
:1009A0008A030F931F9390E0FC01EA59FD4F649175
:1009B000FC01E05EFD4FE491F0E0EE0FFF1FEA5F07
:1009C000FD4F8591949100E412E42FE030E0462F32
:1009D0000E948606611571058105910529F06F5FFA
:1009E0007F4F8F4F9F4F9F701F910F9108958F9250
:1009F0009F92AF92BF92CF92DF92EF92FF920F93AE
:100A00001F93CF93DF93CDB7DEB7A1970FB6F894BE
:100A1000DEBF0FBECDBF6C01990FEE08FF08F7FED9
:100A200047C06DE280E593E00E942A048C012227F2
:100A30003327A9012C193D094E095F0919A2CE01DE
:100A400081967C019AE0892E912CA12CB12CCA01AF
:100A5000B901A50194010E944F0A605DF7016293FC
:100A60007F01211531054105510589F790E080E0AE
:100A7000309719F0CF010E94C404080F191F87E1B5
:100A800092E00E94C404800F911FA1960FB6F894C3
:100A9000DEBF0FBECDBFDF91CF911F910F91FF90B1
:100AA000EF90DF90CF90BF90AF909F908F90089580
:100AB000A701960119A28E010F5D1F4F8AE0C82E73
:100AC000D12CE12CF12CCA01B901A70196010E9499
:100AD0004F0A605DF80162938F01211531054105D0
:100AE000510589F7309729F0CF010E94C4048C0189
:100AF000C6CF10E000E0C3CF1F920F920FB60F9247
:100B000011242F933F938F939F93AF93BF93809123
:100B1000AF029091B002A091B102B091B2023091B7
:100B2000AE0223E0230F2D3758F50196A11DB11D0C
:100B30002093AE028093AF029093B002A093B102D3
:100B4000B093B2028091AA029091AB02A091AC0244
:100B5000B091AD020196A11DB11D8093AA029093A0
:100B6000AB02A093AC02B093AD02BF91AF919F9145
:100B70008F913F912F910F900FBE0F901F9018955E
:100B800026E8230F0296A11DB11DD2CF1F920F920E
:100B90000FB60F9211240BB60F922F933F934F93E2
:100BA0005F936F937F938F939F93AF93BF93EF93D5
:100BB000FF9383EB92E00E940804FF91EF91BF91B5
:100BC000AF919F918F917F916F915F914F913F91E5
:100BD0002F910F900BBE0F900FBE0F901F90189586
:100BE0001F920F920FB60F9211240BB60F922F93F4
:100BF0008F939F93EF93FF93E091C302F091C40210
:100C00008081E091C902F091CA0282FD1DC09081ED
:100C10008091CC028F5F8F732091CD02821741F0BB
:100C2000E091CC02F0E0ED54FD4F958F8093CC0223
:100C3000FF91EF919F918F912F910F900BBE0F908D
:100C40000FBE0F901F9018958081F2CF1F920F92C8
:100C50000FB60F9211240BB60F922F933F934F9321
:100C60005F936F937F938F939F93AF93BF93EF9314
:100C7000FF9380E593E00E940804FF91EF91BF91FC
:100C8000AF919F918F917F916F915F914F913F9124
:100C90002F910F900BBE0F900FBE0F901F901895C5
:100CA0001F920F920FB60F9211240BB60F922F9333
:100CB0008F939F93EF93FF93E0916003F091610313
:100CC0008081E0916603F091670382FD1DC09081F1
:100CD000809169038F5F8F7320916A03821741F0BF
:100CE000E0916903F0E0E05BFC4F958F809369032E
:100CF000FF91EF919F918F912F910F900BBE0F90CD
:100D00000FBE0F901F9018958081F2CFCF92DF9287
:100D1000EF92FF920F931F93E82FF92F05C0015018
:100D200011092109310961F1908196239417B9F3D2
:100D300005C0015011092109310911F19081962353
:100D40009413F7CFC12CD12CE12CF12C0AC08FEFDA
:100D5000C81AD80AE80AF80A0C151D052E053F0521
:100D600079F080818623841791F36C2D7D2D8E2D53
:100D70009F2D1F910F91FF90EF90DF90CF900895DE
:100D800060E070E080E090E01F910F91FF90EF90A5
:100D9000DF90CF900895E3EBF2E01382128248EEE9
:100DA00053E060E070E0448355836683778389E095
:100DB00092E09183808325E331E03587248724E323
:100DC00031E03787268720E331E0318B208B21E328
:100DD00031E0338B228B22E331E0358B248B26E309
:100DE00031E0378B268B118E128E138E148EE0E538
:100DF000F3E0138212824483558366837783918361
:100E0000808385EC90E09587848784EC90E09787D9
:100E1000868780EC90E0918B808B81EC90E0938BC7
:100E2000828B82EC90E0958B848B86EC90E0978BA4
:100E3000868B118E128E138E148EEDEEF3E082E00F
:100E4000808383E0818389E0828387E0838388E0F5
:100E500084838AE085830895CF93DF9300D01F9227
:100E6000CDB7DEB7789484B5826084BD84B58160E7
:100E700084BD85B5826085BD85B5816085BD809165
:100E80006E00816080936E001092810080918100DD
:100E900082608093810080918100816080938100D5
:100EA000809180008160809380008091B100846097
:100EB0008093B1008091B00081608093B0008091F8
:100EC0009100826080939100809191008160809375
:100ED0009100809190008160809390008091A100AA
:100EE00082608093A1008091A10081608093A10025
:100EF0008091A00081608093A00080912101826098
:100F00008093210180912101816080932101809152
:100F1000200181608093200180917A008460809319
:100F20007A0080917A00826080937A0080917A00C2
:100F3000816080937A0080917A00806880937A0043
:100F40001092C10080E593E00E948A0183EB92E059
:100F50000E948A018AE192E00E94C40487E192E043
:100F60000E94C40461E08091ED030E943D0261E0B3
:100F70008091EE030E943D0261E08091EF030E94A8
:100F80003D0261E08091F0030E943D0261E08091AA
:100F9000F1030E943D0261E08091F2030E943D0254
:100FA00060E086E30E943D0260E086E00E943D0230
:100FB00060E085E00E943D020E947E036093800213
:100FC00070938102809382029093830211E086E005
:100FD0000E94D104709301026093000285E00E9498
:100FE000D1047093030260930202209100023091B9
:100FF0000102032E000C440B550B215E33404109C6
:101000005109AAE4B0E00E94440A21EE33E040E036
:1010100050E00E94250A49015A018BE1881A910883
:10102000A108B108909201028092000280917B0099
:10103000877F80937B0090E490937C0080917A007E
:10104000806480937A0080917A00082F007486FD76
:10105000FACF8091780020917900322F282F032E2B
:10106000000C440B550B2D56314041095109AEE59A
:10107000B0E00E94440A2FEA31E040E050E00E94D4
:10108000250A2552310941095109C90102979A835C
:1010900089831401281A390AB101032C000C880B2A
:1010A000990B0E94CC0B2B013C010E947E03C09047
:1010B0008002D0908102E0908202F09083026C194D
:1010C0007D098E099F090E94CA0B20E030E04AE7A3
:1010D00054E40E94220B6B017C010E947E0360930A
:1010E000800270938102809382029093830220E0B9
:1010F00030E040E450E4C301B2010E94810CA7013A
:1011000096010E94810C20917C0230917D024091D9
:101110007E0250917F020E94B10A6B017C0120E0A7
:1011200030E044EB53EC0E941D0B87FD65C020E0CE
:1011300030E044EB53E4C701B6010E947C0C181662
:1011400034F4C12CD12C94EBE92E93E4F92EC09207
:101150007C02D0927D02E0927E02F0927F02C10179
:101160000196039708F46AC120E030E040E051E4C2
:10117000C301B2010E94810CA70196010E94B10A2D
:101180000E94940B9B017C836B83293691E0390785
:1011900024F088E691E09C838B838B819C81883945
:1011A0009E4F24F488E99EEF9C838B83EB80FC8028
:1011B000F194E194F108121613060CF444C1FC8278
:1011C000EB8243E32B813C81429FC001439F900D02
:1011D000112460E570E00E94800A8091F2030E9471
:1011E0006E028B819C81892B71F460E08091F00309
:1011F0000E94B10160E010C0C12CD12C84EBE82E1C
:1012000083ECF82EA4CF8091F00361E0002381F3FA
:1012100060E00E94B10161E08091F1030E94B101A0
:101220008091880281110CC00E947E036093840229
:1012300070938502809386029093870210938802B0
:101240000E947E0340908402509085026090860246
:10125000709087026419750986099709643F714087
:101260008105910538F10E947E036093840270939A
:10127000850280938602909387028BE292E00E941F
:10128000C404C4010E94F7048DE392E00E94C404E8
:1012900089819A810E94F7048EE492E00E94C4043E
:1012A000C1010E94F7048DE592E00E94C404C701C9
:1012B0000E94F70486E00E94D104709301026093BB
:1012C000000285E00E94D1049B01709303026093A9
:1012D0000202683E43E074070CF4A1C07A8369837C
:1012E000213D87E0380724F080ED97E09A838983D9
:1012F0002B3F95E039070CF483C089819A810E94C5
:1013000045038091940281110CC00E947E0360937A
:1013100090027093910280939202909393021093A3
:1013200094020E947E03C0909002D0909102E090BF
:101330009202F09093026C197D098E099F09683E14
:1013400073408105910590F00E947E0360939002A6
:101350007093910280939202909393028AE692E0B6
:101360000E94C40489819A810E94F7048091A2029C
:1013700081110CC00E947E0360939E0270939F02B5
:101380008093A0029093A1021093A2020E947E0378
:10139000C0909E02D0909F02E090A002F090A10227
:1013A0006C197D098E099F096035710581059105CC
:1013B00020F10E947E0360939E0270939F028093AF
:1013C000A0029093A10280919C0290919D02209195
:1013D0000402222349F10A9690939D0280939C0275
:1013E0008F3F910519F014F01092040260919C0255
:1013F00070919D028CE00E946E020E949704E7CDDE
:1014000090E080E02E3B35400CF079CF29813A8185
:101410003195219531093A832983C90170CF88EE2E
:1014200093E09A838983F2CF0A9790939D028093E9
:101430009C0297FFDBCF10930402D8CFF12CE12C54
:101440001C821B82BECE01E0BCCE052E97FB1EF493
:1014500000940E943C0A57FD07D00E944F0A07FCE7
:1014600003D04EF40C943C0A50954095309521954C
:101470003F4F4F4F5F4F08959095809570956195C0
:101480007F4F8F4F9F4F08950E94710AA59F900D27
:10149000B49F900DA49F800D911D11240895A1E289
:1014A0001A2EAA1BBB1BFD010DC0AA1FBB1FEE1FDE
:1014B000FF1FA217B307E407F50720F0A21BB30B29
:1014C000E40BF50B661F771F881F991F1A9469F7A5
:1014D00060957095809590959B01AC01BD01CF0101
:1014E0000895A29FB001B39FC001A39F700D811DFD
:1014F0001124911DB29F700D811D1124911D08951D
:1015000097FB072E16F4009407D077FD09D00E94B0
:101510009C0A07FC05D03EF4909581959F4F089555
:10152000709561957F4F0895EE0FFF1F881F8BBF49
:101530000790F691E02D1994AA1BBB1B51E107C03F
:10154000AA1FBB1FA617B70710F0A61BB70B881F53
:10155000991F5A95A9F780959095BC01CD010895E2
:101560005058BB27AA270E94C80A0C94420C0E941C
:10157000340C38F00E943B0C20F039F49F3F19F4F2
:1015800026F40C94310C0EF4E095E7FB0C942B0C34
:10159000E92F0E94530C58F3BA17620773078407A8
:1015A000950720F079F4A6F50C94750C0EF4E095EF
:1015B0000B2EBA2FA02D0B01B90190010C01CA010D
:1015C000A0011124FF27591B99F0593F50F4503EB8
:1015D00068F11A16F040A22F232F342F4427585FAA
:1015E000F3CF469537952795A795F0405395C9F7C2
:1015F0007EF41F16BA0B620B730B840BBAF091507A
:10160000A1F0FF0FBB1F661F771F881FC2F70EC018
:10161000BA0F621F731F841F48F4879577956795EB
:10162000B795F7959E3F08F0B0CF9395880F08F0D7
:101630009927EE0F9795879508950E94070C08F457
:1016400081E008950E94360B0C94420C0E943B0CE2
:1016500058F00E94340C40F029F45F3F29F00C94BC
:101660002B0C51110C94760C0C94310C0E94530CE1
:1016700068F39923B1F3552391F3951B550BBB27C1
:10168000AA2762177307840738F09F5F5F4F220F06
:10169000331F441FAA1FA9F335D00E2E3AF0E0E8FD
:1016A00032D091505040E695001CCAF72BD0FE2F47
:1016B00029D0660F771F881FBB1F261737074807DB
:1016C000AB07B0E809F0BB0B802DBF01FF27935893
:1016D0005F4F3AF09E3F510578F00C942B0C0C9420
:1016E000760C5F3FE4F3983ED4F386957795679543
:1016F000B795F7959F5FC9F7880F911D96958795C8
:1017000097F90895E1E0660F771F881FBB1F6217E6
:1017100073078407BA0720F0621B730B840BBA0BA4
:10172000EE1F88F7E09508950E949B0B6894B11115
:101730000C94760C08950E945B0C88F09F5798F0EB
:10174000B92F9927B751B0F0E1F0660F771F881FC6
:10175000991F1AF0BA95C9F714C0B13091F00E94E0
:10176000750CB1E008950C94750C672F782F8827BD
:10177000B85F39F0B93FCCF3869577956795B39507
:10178000D9F73EF490958095709561957F4F8F4F76
:101790009F4F0895E89409C097FB3EF4909580957B
:1017A000709561957F4F8F4F9F4F9923A9F0F92F27
:1017B00096E9BB279395F695879577956795B795A5
:1017C000F111F8CFFAF4BB0F11F460FF1BC06F5F8B
:1017D0007F4F8F4F9F4F16C0882311F096E911C09D
:1017E000772321F09EE8872F762F05C0662371F0BE
:1017F00096E8862F70E060E02AF09A95660F771FD2
:10180000881FDAF7880F9695879597F90895990FAD
:101810000008550FAA0BE0E8FEEF16161706E807BA
:10182000F907C0F012161306E407F50798F0621BDB
:10183000730B840B950B39F40A2661F0232B242BB0
:10184000252B21F408950A2609F4A140A6958FEFCF
:10185000811D811D089597F99F6780E870E060E021
:1018600008959FEF80EC089500240A941616170639
:1018700018060906089500240A9412161306140681
:1018800005060895092E0394000C11F4882352F0E4
:10189000BB0F40F4BF2B11F460FF04C06F5F7F4F9C
:1018A0008F4F9F4F089557FD9058440F551F59F083
:1018B0005F3F71F04795880F97FB991F61F09F3F3D
:1018C00079F087950895121613061406551FF2CF66
:1018D0004695F1DF08C0161617061806991FF1CFB6
:1018E00086957105610508940895E894BB276627DD
:1018F0007727CB0197F908950E94070C08F48FEF22
:1019000008950E94940C0C94420C0E94340C38F000
:101910000E943B0C20F0952311F00C942B0C0C949E
:10192000310C11240C94760C0E94530C70F3959F8B
:10193000C1F3950F50E0551F629FF001729FBB27C6
:10194000F00DB11D639FAA27F00DB11DAA1F649F62
:101950006627B00DA11D661F829F2227B00DA11D15
:10196000621F739FB00DA11D621F839FA00D611D9B
:10197000221F749F3327A00D611D231F849F600DBC
:10198000211D822F762F6A2F11249F5750409AF0E5
:10199000F1F088234AF0EE0FFF1FBB1F661F771F71
:1019A000881F91505040A9F79E3F510580F00C943C
:1019B0002B0C0C94760C5F3FE4F3983ED4F38695A1
:1019C00077956795B795F795E7959F5FC1F7FE2BDC
:1019D000880F911D9695879597F90895F894FFCFF4
:1019E000DC05000001000000002A048A03B7037729
:1019F00004E803C603DA030D0A00426F6174205243
:101A000075646465722054657374000A5275646469
:101A1000657220646573697265643A20005275646A
:101A20006465722070726573656E743A2000527539
:101A300064646572206572726F723A200052756438
:101A40006465722050574D3A20005468726F747468
:0C1A50006C65207369676E616C3A2000C1
:00000001FF
